{
  "_format": "hh-sol-artifact-1",
  "contractName": "BeatNFTCreditSystemV2",
  "sourceName": "contracts/BeatNFTCreditSystemV2.sol",
  "abi": [
    {
      "inputs": [
        {
          "internalType": "address",
          "name": "initialOwner",
          "type": "address"
        }
      ],
      "stateMutability": "nonpayable",
      "type": "constructor"
    },
    {
      "inputs": [
        {
          "internalType": "address",
          "name": "sender",
          "type": "address"
        },
        {
          "internalType": "uint256",
          "name": "tokenId",
          "type": "uint256"
        },
        {
          "internalType": "address",
          "name": "owner",
          "type": "address"
        }
      ],
      "name": "ERC721IncorrectOwner",
      "type": "error"
    },
    {
      "inputs": [
        {
          "internalType": "address",
          "name": "operator",
          "type": "address"
        },
        {
          "internalType": "uint256",
          "name": "tokenId",
          "type": "uint256"
        }
      ],
      "name": "ERC721InsufficientApproval",
      "type": "error"
    },
    {
      "inputs": [
        {
          "internalType": "address",
          "name": "approver",
          "type": "address"
        }
      ],
      "name": "ERC721InvalidApprover",
      "type": "error"
    },
    {
      "inputs": [
        {
          "internalType": "address",
          "name": "operator",
          "type": "address"
        }
      ],
      "name": "ERC721InvalidOperator",
      "type": "error"
    },
    {
      "inputs": [
        {
          "internalType": "address",
          "name": "owner",
          "type": "address"
        }
      ],
      "name": "ERC721InvalidOwner",
      "type": "error"
    },
    {
      "inputs": [
        {
          "internalType": "address",
          "name": "receiver",
          "type": "address"
        }
      ],
      "name": "ERC721InvalidReceiver",
      "type": "error"
    },
    {
      "inputs": [
        {
          "internalType": "address",
          "name": "sender",
          "type": "address"
        }
      ],
      "name": "ERC721InvalidSender",
      "type": "error"
    },
    {
      "inputs": [
        {
          "internalType": "uint256",
          "name": "tokenId",
          "type": "uint256"
        }
      ],
      "name": "ERC721NonexistentToken",
      "type": "error"
    },
    {
      "inputs": [
        {
          "internalType": "address",
          "name": "owner",
          "type": "address"
        }
      ],
      "name": "OwnableInvalidOwner",
      "type": "error"
    },
    {
      "inputs": [
        {
          "internalType": "address",
          "name": "account",
          "type": "address"
        }
      ],
      "name": "OwnableUnauthorizedAccount",
      "type": "error"
    },
    {
      "inputs": [],
      "name": "ReentrancyGuardReentrantCall",
      "type": "error"
    },
    {
      "anonymous": false,
      "inputs": [
        {
          "indexed": true,
          "internalType": "address",
          "name": "owner",
          "type": "address"
        },
        {
          "indexed": true,
          "internalType": "address",
          "name": "approved",
          "type": "address"
        },
        {
          "indexed": true,
          "internalType": "uint256",
          "name": "tokenId",
          "type": "uint256"
        }
      ],
      "name": "Approval",
      "type": "event"
    },
    {
      "anonymous": false,
      "inputs": [
        {
          "indexed": true,
          "internalType": "address",
          "name": "owner",
          "type": "address"
        },
        {
          "indexed": true,
          "internalType": "address",
          "name": "operator",
          "type": "address"
        },
        {
          "indexed": false,
          "internalType": "bool",
          "name": "approved",
          "type": "bool"
        }
      ],
      "name": "ApprovalForAll",
      "type": "event"
    },
    {
      "anonymous": false,
      "inputs": [
        {
          "indexed": true,
          "internalType": "uint256",
          "name": "packageId",
          "type": "uint256"
        },
        {
          "indexed": false,
          "internalType": "uint256",
          "name": "credits",
          "type": "uint256"
        },
        {
          "indexed": false,
          "internalType": "uint256",
          "name": "price",
          "type": "uint256"
        }
      ],
      "name": "CreditPackageAdded",
      "type": "event"
    },
    {
      "anonymous": false,
      "inputs": [
        {
          "indexed": true,
          "internalType": "address",
          "name": "user",
          "type": "address"
        },
        {
          "indexed": false,
          "internalType": "uint256",
          "name": "credits",
          "type": "uint256"
        },
        {
          "indexed": false,
          "internalType": "uint256",
          "name": "price",
          "type": "uint256"
        }
      ],
      "name": "CreditsPurchased",
      "type": "event"
    },
    {
      "anonymous": false,
      "inputs": [
        {
          "indexed": true,
          "internalType": "address",
          "name": "user",
          "type": "address"
        },
        {
          "indexed": false,
          "internalType": "uint256",
          "name": "credits",
          "type": "uint256"
        },
        {
          "indexed": false,
          "internalType": "string",
          "name": "purpose",
          "type": "string"
        }
      ],
      "name": "CreditsUsed",
      "type": "event"
    },
    {
      "anonymous": false,
      "inputs": [
        {
          "indexed": true,
          "internalType": "address",
          "name": "previousOwner",
          "type": "address"
        },
        {
          "indexed": true,
          "internalType": "address",
          "name": "newOwner",
          "type": "address"
        }
      ],
      "name": "OwnershipTransferred",
      "type": "event"
    },
    {
      "anonymous": false,
      "inputs": [
        {
          "indexed": true,
          "internalType": "address",
          "name": "user",
          "type": "address"
        },
        {
          "indexed": false,
          "internalType": "uint256",
          "name": "price",
          "type": "uint256"
        }
      ],
      "name": "ProNFTUpgraded",
      "type": "event"
    },
    {
      "anonymous": false,
      "inputs": [
        {
          "indexed": true,
          "internalType": "address",
          "name": "user",
          "type": "address"
        },
        {
          "indexed": false,
          "internalType": "uint256",
          "name": "fileSize",
          "type": "uint256"
        },
        {
          "indexed": false,
          "internalType": "uint256",
          "name": "totalUsed",
          "type": "uint256"
        }
      ],
      "name": "StorageUsed",
      "type": "event"
    },
    {
      "anonymous": false,
      "inputs": [
        {
          "indexed": true,
          "internalType": "address",
          "name": "from",
          "type": "address"
        },
        {
          "indexed": true,
          "internalType": "address",
          "name": "to",
          "type": "address"
        },
        {
          "indexed": true,
          "internalType": "uint256",
          "name": "tokenId",
          "type": "uint256"
        }
      ],
      "name": "Transfer",
      "type": "event"
    },
    {
      "inputs": [],
      "name": "MAX_FILE_SIZE",
      "outputs": [
        {
          "internalType": "uint256",
          "name": "",
          "type": "uint256"
        }
      ],
      "stateMutability": "view",
      "type": "function"
    },
    {
      "inputs": [],
      "name": "MAX_STORAGE_PER_CREDIT",
      "outputs": [
        {
          "internalType": "uint256",
          "name": "",
          "type": "uint256"
        }
      ],
      "stateMutability": "view",
      "type": "function"
    },
    {
      "inputs": [],
      "name": "PRO_NFT_PRICE",
      "outputs": [
        {
          "internalType": "uint256",
          "name": "",
          "type": "uint256"
        }
      ],
      "stateMutability": "view",
      "type": "function"
    },
    {
      "inputs": [],
      "name": "PRO_NFT_TOKEN_ID",
      "outputs": [
        {
          "internalType": "uint256",
          "name": "",
          "type": "uint256"
        }
      ],
      "stateMutability": "view",
      "type": "function"
    },
    {
      "inputs": [
        {
          "internalType": "uint256",
          "name": "credits",
          "type": "uint256"
        },
        {
          "internalType": "uint256",
          "name": "price",
          "type": "uint256"
        }
      ],
      "name": "addCreditPackage",
      "outputs": [],
      "stateMutability": "nonpayable",
      "type": "function"
    },
    {
      "inputs": [
        {
          "internalType": "address",
          "name": "to",
          "type": "address"
        },
        {
          "internalType": "uint256",
          "name": "tokenId",
          "type": "uint256"
        }
      ],
      "name": "approve",
      "outputs": [],
      "stateMutability": "nonpayable",
      "type": "function"
    },
    {
      "inputs": [
        {
          "internalType": "address",
          "name": "owner",
          "type": "address"
        }
      ],
      "name": "balanceOf",
      "outputs": [
        {
          "internalType": "uint256",
          "name": "",
          "type": "uint256"
        }
      ],
      "stateMutability": "view",
      "type": "function"
    },
    {
      "inputs": [
        {
          "internalType": "address",
          "name": "user",
          "type": "address"
        },
        {
          "internalType": "uint256",
          "name": "requiredCredits",
          "type": "uint256"
        },
        {
          "internalType": "uint256",
          "name": "fileSize",
          "type": "uint256"
        }
      ],
      "name": "canUpload",
      "outputs": [
        {
          "internalType": "bool",
          "name": "",
          "type": "bool"
        }
      ],
      "stateMutability": "view",
      "type": "function"
    },
    {
      "inputs": [
        {
          "internalType": "address",
          "name": "",
          "type": "address"
        }
      ],
      "name": "creditBalances",
      "outputs": [
        {
          "internalType": "uint256",
          "name": "",
          "type": "uint256"
        }
      ],
      "stateMutability": "view",
      "type": "function"
    },
    {
      "inputs": [
        {
          "internalType": "uint256",
          "name": "",
          "type": "uint256"
        }
      ],
      "name": "creditPackages",
      "outputs": [
        {
          "internalType": "uint256",
          "name": "credits",
          "type": "uint256"
        },
        {
          "internalType": "uint256",
          "name": "price",
          "type": "uint256"
        },
        {
          "internalType": "bool",
          "name": "active",
          "type": "bool"
        }
      ],
      "stateMutability": "view",
      "type": "function"
    },
    {
      "inputs": [
        {
          "internalType": "uint256",
          "name": "tokenId",
          "type": "uint256"
        }
      ],
      "name": "getApproved",
      "outputs": [
        {
          "internalType": "address",
          "name": "",
          "type": "address"
        }
      ],
      "stateMutability": "view",
      "type": "function"
    },
    {
      "inputs": [
        {
          "internalType": "address",
          "name": "user",
          "type": "address"
        }
      ],
      "name": "getAvailableStorage",
      "outputs": [
        {
          "internalType": "uint256",
          "name": "",
          "type": "uint256"
        }
      ],
      "stateMutability": "view",
      "type": "function"
    },
    {
      "inputs": [
        {
          "internalType": "address",
          "name": "user",
          "type": "address"
        }
      ],
      "name": "getCreditBalance",
      "outputs": [
        {
          "internalType": "uint256",
          "name": "",
          "type": "uint256"
        }
      ],
      "stateMutability": "view",
      "type": "function"
    },
    {
      "inputs": [
        {
          "internalType": "address",
          "name": "user",
          "type": "address"
        }
      ],
      "name": "getStorageUsage",
      "outputs": [
        {
          "components": [
            {
              "internalType": "uint256",
              "name": "totalBytes",
              "type": "uint256"
            },
            {
              "internalType": "uint256",
              "name": "filesCount",
              "type": "uint256"
            },
            {
              "internalType": "uint256",
              "name": "lastUpdated",
              "type": "uint256"
            }
          ],
          "internalType": "struct BeatNFTCreditSystemV2.StorageUsage",
          "name": "",
          "type": "tuple"
        }
      ],
      "stateMutability": "view",
      "type": "function"
    },
    {
      "inputs": [
        {
          "internalType": "address",
          "name": "user",
          "type": "address"
        },
        {
          "internalType": "uint256",
          "name": "credits",
          "type": "uint256"
        }
      ],
      "name": "grantFreeCredits",
      "outputs": [],
      "stateMutability": "nonpayable",
      "type": "function"
    },
    {
      "inputs": [
        {
          "internalType": "address",
          "name": "",
          "type": "address"
        }
      ],
      "name": "hasProNFT",
      "outputs": [
        {
          "internalType": "bool",
          "name": "",
          "type": "bool"
        }
      ],
      "stateMutability": "view",
      "type": "function"
    },
    {
      "inputs": [
        {
          "internalType": "address",
          "name": "owner",
          "type": "address"
        },
        {
          "internalType": "address",
          "name": "operator",
          "type": "address"
        }
      ],
      "name": "isApprovedForAll",
      "outputs": [
        {
          "internalType": "bool",
          "name": "",
          "type": "bool"
        }
      ],
      "stateMutability": "view",
      "type": "function"
    },
    {
      "inputs": [],
      "name": "name",
      "outputs": [
        {
          "internalType": "string",
          "name": "",
          "type": "string"
        }
      ],
      "stateMutability": "view",
      "type": "function"
    },
    {
      "inputs": [],
      "name": "owner",
      "outputs": [
        {
          "internalType": "address",
          "name": "",
          "type": "address"
        }
      ],
      "stateMutability": "view",
      "type": "function"
    },
    {
      "inputs": [
        {
          "internalType": "uint256",
          "name": "tokenId",
          "type": "uint256"
        }
      ],
      "name": "ownerOf",
      "outputs": [
        {
          "internalType": "address",
          "name": "",
          "type": "address"
        }
      ],
      "stateMutability": "view",
      "type": "function"
    },
    {
      "inputs": [],
      "name": "packageCount",
      "outputs": [
        {
          "internalType": "uint256",
          "name": "",
          "type": "uint256"
        }
      ],
      "stateMutability": "view",
      "type": "function"
    },
    {
      "inputs": [
        {
          "internalType": "uint256",
          "name": "packageId",
          "type": "uint256"
        }
      ],
      "name": "purchaseCredits",
      "outputs": [],
      "stateMutability": "payable",
      "type": "function"
    },
    {
      "inputs": [],
      "name": "renounceOwnership",
      "outputs": [],
      "stateMutability": "nonpayable",
      "type": "function"
    },
    {
      "inputs": [
        {
          "internalType": "address",
          "name": "from",
          "type": "address"
        },
        {
          "internalType": "address",
          "name": "to",
          "type": "address"
        },
        {
          "internalType": "uint256",
          "name": "tokenId",
          "type": "uint256"
        }
      ],
      "name": "safeTransferFrom",
      "outputs": [],
      "stateMutability": "nonpayable",
      "type": "function"
    },
    {
      "inputs": [
        {
          "internalType": "address",
          "name": "from",
          "type": "address"
        },
        {
          "internalType": "address",
          "name": "to",
          "type": "address"
        },
        {
          "internalType": "uint256",
          "name": "tokenId",
          "type": "uint256"
        },
        {
          "internalType": "bytes",
          "name": "data",
          "type": "bytes"
        }
      ],
      "name": "safeTransferFrom",
      "outputs": [],
      "stateMutability": "nonpayable",
      "type": "function"
    },
    {
      "inputs": [
        {
          "internalType": "address",
          "name": "operator",
          "type": "address"
        },
        {
          "internalType": "bool",
          "name": "approved",
          "type": "bool"
        }
      ],
      "name": "setApprovalForAll",
      "outputs": [],
      "stateMutability": "nonpayable",
      "type": "function"
    },
    {
      "inputs": [
        {
          "internalType": "bytes4",
          "name": "interfaceId",
          "type": "bytes4"
        }
      ],
      "name": "supportsInterface",
      "outputs": [
        {
          "internalType": "bool",
          "name": "",
          "type": "bool"
        }
      ],
      "stateMutability": "view",
      "type": "function"
    },
    {
      "inputs": [],
      "name": "symbol",
      "outputs": [
        {
          "internalType": "string",
          "name": "",
          "type": "string"
        }
      ],
      "stateMutability": "view",
      "type": "function"
    },
    {
      "inputs": [
        {
          "internalType": "uint256",
          "name": "packageId",
          "type": "uint256"
        }
      ],
      "name": "togglePackage",
      "outputs": [],
      "stateMutability": "nonpayable",
      "type": "function"
    },
    {
      "inputs": [
        {
          "internalType": "uint256",
          "name": "tokenId",
          "type": "uint256"
        }
      ],
      "name": "tokenURI",
      "outputs": [
        {
          "internalType": "string",
          "name": "",
          "type": "string"
        }
      ],
      "stateMutability": "view",
      "type": "function"
    },
    {
      "inputs": [
        {
          "internalType": "address",
          "name": "",
          "type": "address"
        }
      ],
      "name": "totalCreditsUsed",
      "outputs": [
        {
          "internalType": "uint256",
          "name": "",
          "type": "uint256"
        }
      ],
      "stateMutability": "view",
      "type": "function"
    },
    {
      "inputs": [
        {
          "internalType": "address",
          "name": "from",
          "type": "address"
        },
        {
          "internalType": "address",
          "name": "to",
          "type": "address"
        },
        {
          "internalType": "uint256",
          "name": "tokenId",
          "type": "uint256"
        }
      ],
      "name": "transferFrom",
      "outputs": [],
      "stateMutability": "nonpayable",
      "type": "function"
    },
    {
      "inputs": [
        {
          "internalType": "address",
          "name": "newOwner",
          "type": "address"
        }
      ],
      "name": "transferOwnership",
      "outputs": [],
      "stateMutability": "nonpayable",
      "type": "function"
    },
    {
      "inputs": [],
      "name": "upgradeToProNFT",
      "outputs": [],
      "stateMutability": "payable",
      "type": "function"
    },
    {
      "inputs": [
        {
          "internalType": "address",
          "name": "user",
          "type": "address"
        },
        {
          "internalType": "uint256",
          "name": "credits",
          "type": "uint256"
        },
        {
          "internalType": "uint256",
          "name": "fileSize",
          "type": "uint256"
        },
        {
          "internalType": "string",
          "name": "purpose",
          "type": "string"
        }
      ],
      "name": "useCreditsWithStorage",
      "outputs": [],
      "stateMutability": "nonpayable",
      "type": "function"
    },
    {
      "inputs": [
        {
          "internalType": "address",
          "name": "",
          "type": "address"
        }
      ],
      "name": "userStorage",
      "outputs": [
        {
          "internalType": "uint256",
          "name": "totalBytes",
          "type": "uint256"
        },
        {
          "internalType": "uint256",
          "name": "filesCount",
          "type": "uint256"
        },
        {
          "internalType": "uint256",
          "name": "lastUpdated",
          "type": "uint256"
        }
      ],
      "stateMutability": "view",
      "type": "function"
    },
    {
      "inputs": [],
      "name": "withdraw",
      "outputs": [],
      "stateMutability": "nonpayable",
      "type": "function"
    }
  ],
  "bytecode": "0x608060405260016008553480156200001657600080fd5b50604051620048833803806200488383398181016040528101906200003c919062000408565b806040518060400160405280600f81526020017f426561744e4654204372656469747300000000000000000000000000000000008152506040518060400160405280600881526020017f42454154435245440000000000000000000000000000000000000000000000008152508160009081620000ba9190620006b4565b508060019081620000cc9190620006b4565b505050600073ffffffffffffffffffffffffffffffffffffffff168173ffffffffffffffffffffffffffffffffffffffff1603620001445760006040517f1e4fbdf70000000000000000000000000000000000000000000000000000000081526004016200013b9190620007ac565b60405180910390fd5b62000155816200021260201b60201c565b50600160078190555062000178600a662386f26fc10000620002d860201b60201c565b62000192601966470de4df820000620002d860201b60201c565b620001ac6032667c585087238000620002d860201b60201c565b620001c6606466d529ae9e860000620002d860201b60201c565b600a600960003373ffffffffffffffffffffffffffffffffffffffff1673ffffffffffffffffffffffffffffffffffffffff168152602001908152602001600020819055505062000883565b6000600660009054906101000a900473ffffffffffffffffffffffffffffffffffffffff16905081600660006101000a81548173ffffffffffffffffffffffffffffffffffffffff021916908373ffffffffffffffffffffffffffffffffffffffff1602179055508173ffffffffffffffffffffffffffffffffffffffff168173ffffffffffffffffffffffffffffffffffffffff167f8be0079c531659141344cd1fd0a4f28419497f9722a3daafe3b4186f6b6457e060405160405180910390a35050565b604051806060016040528083815260200182815260200160011515815250600d6000600e548152602001908152602001600020600082015181600001556020820151816001015560408201518160020160006101000a81548160ff021916908315150217905550905050600e547f9171a384880774556fda4542d1c513dbebdb7cad3449e2bd0edde920a1e96fe4838360405162000378929190620007da565b60405180910390a2600e6000815480929190620003959062000836565b91905055505050565b600080fd5b600073ffffffffffffffffffffffffffffffffffffffff82169050919050565b6000620003d082620003a3565b9050919050565b620003e281620003c3565b8114620003ee57600080fd5b50565b6000815190506200040281620003d7565b92915050565b6000602082840312156200042157620004206200039e565b5b60006200043184828501620003f1565b91505092915050565b600081519050919050565b7f4e487b7100000000000000000000000000000000000000000000000000000000600052604160045260246000fd5b7f4e487b7100000000000000000000000000000000000000000000000000000000600052602260045260246000fd5b60006002820490506001821680620004bc57607f821691505b602082108103620004d257620004d162000474565b5b50919050565b60008190508160005260206000209050919050565b60006020601f8301049050919050565b600082821b905092915050565b6000600883026200053c7fffffffffffffffffffffffffffffffffffffffffffffffffffffffffffffffff82620004fd565b620005488683620004fd565b95508019841693508086168417925050509392505050565b6000819050919050565b6000819050919050565b6000620005956200058f620005898462000560565b6200056a565b62000560565b9050919050565b6000819050919050565b620005b18362000574565b620005c9620005c0826200059c565b8484546200050a565b825550505050565b600090565b620005e0620005d1565b620005ed818484620005a6565b505050565b5b81811015620006155762000609600082620005d6565b600181019050620005f3565b5050565b601f82111562000664576200062e81620004d8565b6200063984620004ed565b8101602085101562000649578190505b620006616200065885620004ed565b830182620005f2565b50505b505050565b600082821c905092915050565b6000620006896000198460080262000669565b1980831691505092915050565b6000620006a4838362000676565b9150826002028217905092915050565b620006bf826200043a565b67ffffffffffffffff811115620006db57620006da62000445565b5b620006e78254620004a3565b620006f482828562000619565b600060209050601f8311600181146200072c576000841562000717578287015190505b62000723858262000696565b86555062000793565b601f1984166200073c86620004d8565b60005b8281101562000766578489015182556001820191506020850194506020810190506200073f565b8683101562000786578489015162000782601f89168262000676565b8355505b6001600288020188555050505b505050505050565b620007a681620003c3565b82525050565b6000602082019050620007c360008301846200079b565b92915050565b620007d48162000560565b82525050565b6000604082019050620007f16000830185620007c9565b620008006020830184620007c9565b9392505050565b7f4e487b7100000000000000000000000000000000000000000000000000000000600052601160045260246000fd5b6000620008438262000560565b91507fffffffffffffffffffffffffffffffffffffffffffffffffffffffffffffffff820362000878576200087762000807565b5b600182019050919050565b613ff080620008936000396000f3fe60806040526004361061021a5760003560e01c806376c75a6a11610123578063c87b56dd116100ab578063e655dfca1161006f578063e655dfca146107ef578063e985e9c51461082e578063ee0ebe0c1461086b578063f2fde38b14610896578063ffdc68ab146108bf5761021a565b8063c87b56dd146106e4578063cbc73bee14610721578063ccad977c1461075e578063d124d1bc14610787578063df8ae236146107c65761021a565b8063a22cb465116100f2578063a22cb465146105fc578063b08e9bcd14610625578063b88d4fde14610662578063bef101fb1461068b578063bf1a5af7146106a75761021a565b806376c75a6a146105525780638967a8661461057b5780638da5cb5b146105a657806395d89b41146105d15761021a565b806342842e0e116101a65780636352211e116101755780636352211e1461045b5780636add1b3f146104985780636c08ff24146104d557806370a08231146104fe578063715018a61461053b5761021a565b806342842e0e1461039f57806351b93f8b146103c85780635a9baf37146103f35780636009a2d81461041e5761021a565b80630e0e2f65116101ed5780630e0e2f65146102ed5780630e9c4e4f1461032a5780631f1ce2b01461035557806323b872dd1461035f5780633ccfd60b146103885761021a565b806301ffc9a71461021f57806306fdde031461025c578063081812fc14610287578063095ea7b3146102c4575b600080fd5b34801561022b57600080fd5b5061024660048036038101906102419190612ff5565b6108fc565b604051610253919061303d565b60405180910390f35b34801561026857600080fd5b506102716109de565b60405161027e91906130e8565b60405180910390f35b34801561029357600080fd5b506102ae60048036038101906102a99190613140565b610a70565b6040516102bb91906131ae565b60405180910390f35b3480156102d057600080fd5b506102eb60048036038101906102e691906131f5565b610a8c565b005b3480156102f957600080fd5b50610314600480360381019061030f9190613235565b610aa2565b6040516103219190613271565b60405180910390f35b34801561033657600080fd5b5061033f610aba565b60405161034c9190613271565b60405180910390f35b61035d610ac2565b005b34801561036b57600080fd5b506103866004803603810190610381919061328c565b610ce5565b005b34801561039457600080fd5b5061039d610de7565b005b3480156103ab57600080fd5b506103c660048036038101906103c1919061328c565b610e88565b005b3480156103d457600080fd5b506103dd610ea8565b6040516103ea9190613271565b60405180910390f35b3480156103ff57600080fd5b50610408610ead565b6040516104159190613271565b60405180910390f35b34801561042a57600080fd5b5061044560048036038101906104409190613235565b610eb5565b6040516104529190613271565b60405180910390f35b34801561046757600080fd5b50610482600480360381019061047d9190613140565b610ecd565b60405161048f91906131ae565b60405180910390f35b3480156104a457600080fd5b506104bf60048036038101906104ba9190613235565b610edf565b6040516104cc9190613271565b60405180910390f35b3480156104e157600080fd5b506104fc60048036038101906104f791906132df565b610fa3565b005b34801561050a57600080fd5b5061052560048036038101906105209190613235565b610fb9565b6040516105329190613271565b60405180910390f35b34801561054757600080fd5b50610550611073565b005b34801561055e57600080fd5b5061057960048036038101906105749190613454565b611087565b005b34801561058757600080fd5b506105906115bf565b60405161059d9190613271565b60405180910390f35b3480156105b257600080fd5b506105bb6115cb565b6040516105c891906131ae565b60405180910390f35b3480156105dd57600080fd5b506105e66115f5565b6040516105f391906130e8565b60405180910390f35b34801561060857600080fd5b50610623600480360381019061061e9190613503565b611687565b005b34801561063157600080fd5b5061064c60048036038101906106479190613235565b61169d565b6040516106599190613271565b60405180910390f35b34801561066e57600080fd5b50610689600480360381019061068491906135e4565b6117d8565b005b6106a560048036038101906106a09190613140565b6117fd565b005b3480156106b357600080fd5b506106ce60048036038101906106c99190613235565b611a46565b6040516106db91906136b8565b60405180910390f35b3480156106f057600080fd5b5061070b60048036038101906107069190613140565b611abd565b60405161071891906130e8565b60405180910390f35b34801561072d57600080fd5b5061074860048036038101906107439190613235565b611b26565b604051610755919061303d565b60405180910390f35b34801561076a57600080fd5b50610785600480360381019061078091906131f5565b611b46565b005b34801561079357600080fd5b506107ae60048036038101906107a99190613140565b611bf9565b6040516107bd939291906136d3565b60405180910390f35b3480156107d257600080fd5b506107ed60048036038101906107e89190613140565b611c30565b005b3480156107fb57600080fd5b5061081660048036038101906108119190613235565b611cd1565b6040516108259392919061370a565b60405180910390f35b34801561083a57600080fd5b5061085560048036038101906108509190613741565b611cfb565b604051610862919061303d565b60405180910390f35b34801561087757600080fd5b50610880611d8f565b60405161088d9190613271565b60405180910390f35b3480156108a257600080fd5b506108bd60048036038101906108b89190613235565b611d95565b005b3480156108cb57600080fd5b506108e660048036038101906108e19190613781565b611e1b565b6040516108f3919061303d565b60405180910390f35b60007f80ac58cd000000000000000000000000000000000000000000000000000000007bffffffffffffffffffffffffffffffffffffffffffffffffffffffff1916827bffffffffffffffffffffffffffffffffffffffffffffffffffffffff191614806109c757507f5b5e139f000000000000000000000000000000000000000000000000000000007bffffffffffffffffffffffffffffffffffffffffffffffffffffffff1916827bffffffffffffffffffffffffffffffffffffffffffffffffffffffff1916145b806109d757506109d682611f8c565b5b9050919050565b6060600080546109ed90613803565b80601f0160208091040260200160405190810160405280929190818152602001828054610a1990613803565b8015610a665780601f10610a3b57610100808354040283529160200191610a66565b820191906000526020600020905b815481529060010190602001808311610a4957829003601f168201915b5050505050905090565b6000610a7b82611ff6565b50610a858261207e565b9050919050565b610a9e8282610a996120bb565b6120c3565b5050565b600b6020528060005260406000206000915090505481565b630320000081565b610aca6120d5565b600a60003373ffffffffffffffffffffffffffffffffffffffff1673ffffffffffffffffffffffffffffffffffffffff16815260200190815260200160002060009054906101000a900460ff1615610b57576040517f08c379a0000000000000000000000000000000000000000000000000000000008152600401610b4e90613880565b60405180910390fd5b67016345785d8a0000341015610ba2576040517f08c379a0000000000000000000000000000000000000000000000000000000008152600401610b99906138ec565b60405180910390fd5b6001600a60003373ffffffffffffffffffffffffffffffffffffffff1673ffffffffffffffffffffffffffffffffffffffff16815260200190815260200160002060006101000a81548160ff021916908315150217905550610c1a3360086000815480929190610c119061393b565b9190505561211b565b67016345785d8a0000341115610c85573373ffffffffffffffffffffffffffffffffffffffff166108fc67016345785d8a000034610c589190613983565b9081150290604051600060405180830381858888f19350505050158015610c83573d6000803e3d6000fd5b505b3373ffffffffffffffffffffffffffffffffffffffff167f75906c541aa85d882b1456d2e0b29dd609732330b8c0f95fbab4f56a5e451f5267016345785d8a0000604051610cd39190613271565b60405180910390a2610ce3612139565b565b600073ffffffffffffffffffffffffffffffffffffffff168273ffffffffffffffffffffffffffffffffffffffff1603610d575760006040517f64a0ae92000000000000000000000000000000000000000000000000000000008152600401610d4e91906131ae565b60405180910390fd5b6000610d6b8383610d666120bb565b612143565b90508373ffffffffffffffffffffffffffffffffffffffff168173ffffffffffffffffffffffffffffffffffffffff1614610de1578382826040517f64283d7b000000000000000000000000000000000000000000000000000000008152600401610dd8939291906139b7565b60405180910390fd5b50505050565b610def61235d565b600047905060008111610e37576040517f08c379a0000000000000000000000000000000000000000000000000000000008152600401610e2e90613a3a565b60405180910390fd5b610e3f6115cb565b73ffffffffffffffffffffffffffffffffffffffff166108fc829081150290604051600060405180830381858888f19350505050158015610e84573d6000803e3d6000fd5b5050565b610ea3838383604051806020016040528060008152506117d8565b505050565b600081565b630640000081565b60096020528060005260406000206000915090505481565b6000610ed882611ff6565b9050919050565b6000600a60008373ffffffffffffffffffffffffffffffffffffffff1673ffffffffffffffffffffffffffffffffffffffff16815260200190815260200160002060009054906101000a900460ff1615610f5b577fffffffffffffffffffffffffffffffffffffffffffffffffffffffffffffffff9050610f9e565b600960008373ffffffffffffffffffffffffffffffffffffffff1673ffffffffffffffffffffffffffffffffffffffff1681526020019081526020016000205490505b919050565b610fab61235d565b610fb582826123e4565b5050565b60008073ffffffffffffffffffffffffffffffffffffffff168273ffffffffffffffffffffffffffffffffffffffff160361102c5760006040517f89c62b6400000000000000000000000000000000000000000000000000000000815260040161102391906131ae565b60405180910390fd5b600360008373ffffffffffffffffffffffffffffffffffffffff1673ffffffffffffffffffffffffffffffffffffffff168152602001908152602001600020549050919050565b61107b61235d565b61108560006124a6565b565b61108f6115cb565b73ffffffffffffffffffffffffffffffffffffffff163373ffffffffffffffffffffffffffffffffffffffff1614806110f357508373ffffffffffffffffffffffffffffffffffffffff163373ffffffffffffffffffffffffffffffffffffffff16145b611132576040517f08c379a000000000000000000000000000000000000000000000000000000000815260040161112990613aa6565b60405180910390fd5b6306400000821115611179576040517f08c379a000000000000000000000000000000000000000000000000000000000815260040161117090613b12565b60405180910390fd5b600a60008573ffffffffffffffffffffffffffffffffffffffff1673ffffffffffffffffffffffffffffffffffffffff16815260200190815260200160002060009054906101000a900460ff166113dd5782600960008673ffffffffffffffffffffffffffffffffffffffff1673ffffffffffffffffffffffffffffffffffffffff16815260200190815260200160002054101561124c576040517f08c379a000000000000000000000000000000000000000000000000000000000815260040161124390613b7e565b60405180910390fd5b60006303200000600960008773ffffffffffffffffffffffffffffffffffffffff1673ffffffffffffffffffffffffffffffffffffffff1681526020019081526020016000205461129d9190613b9e565b90508083600c60008873ffffffffffffffffffffffffffffffffffffffff1673ffffffffffffffffffffffffffffffffffffffff168152602001908152602001600020600001546112ee9190613be0565b111561132f576040517f08c379a000000000000000000000000000000000000000000000000000000000815260040161132690613c60565b60405180910390fd5b83600960008773ffffffffffffffffffffffffffffffffffffffff1673ffffffffffffffffffffffffffffffffffffffff168152602001908152602001600020600082825461137e9190613983565b9250508190555083600b60008773ffffffffffffffffffffffffffffffffffffffff1673ffffffffffffffffffffffffffffffffffffffff16815260200190815260200160002060008282546113d49190613be0565b92505081905550505b81600c60008673ffffffffffffffffffffffffffffffffffffffff1673ffffffffffffffffffffffffffffffffffffffff168152602001908152602001600020600001600082825461142f9190613be0565b925050819055506001600c60008673ffffffffffffffffffffffffffffffffffffffff1673ffffffffffffffffffffffffffffffffffffffff16815260200190815260200160002060010160008282546114899190613be0565b9250508190555042600c60008673ffffffffffffffffffffffffffffffffffffffff1673ffffffffffffffffffffffffffffffffffffffff168152602001908152602001600020600201819055508373ffffffffffffffffffffffffffffffffffffffff167fa3082d44ec912af0a4ac03120ca8f9d2bb3e8151383aa2c5e7df0d8a1b137baf848360405161151f929190613c80565b60405180910390a28373ffffffffffffffffffffffffffffffffffffffff167f73b33a7352298596d0198f5b935d664a806a9a2704c1deb379142d023f2dc14283600c60008873ffffffffffffffffffffffffffffffffffffffff1673ffffffffffffffffffffffffffffffffffffffff168152602001908152602001600020600001546040516115b1929190613cb0565b60405180910390a250505050565b67016345785d8a000081565b6000600660009054906101000a900473ffffffffffffffffffffffffffffffffffffffff16905090565b60606001805461160490613803565b80601f016020809104026020016040519081016040528092919081815260200182805461163090613803565b801561167d5780601f106116525761010080835404028352916020019161167d565b820191906000526020600020905b81548152906001019060200180831161166057829003601f168201915b5050505050905090565b6116996116926120bb565b838361256c565b5050565b6000600a60008373ffffffffffffffffffffffffffffffffffffffff1673ffffffffffffffffffffffffffffffffffffffff16815260200190815260200160002060009054906101000a900460ff1615611719577fffffffffffffffffffffffffffffffffffffffffffffffffffffffffffffffff90506117d3565b60006303200000600960008573ffffffffffffffffffffffffffffffffffffffff1673ffffffffffffffffffffffffffffffffffffffff1681526020019081526020016000205461176a9190613b9e565b90506000600c60008573ffffffffffffffffffffffffffffffffffffffff1673ffffffffffffffffffffffffffffffffffffffff1681526020019081526020016000206000015490508082116117c15760006117ce565b80826117cd9190613983565b5b925050505b919050565b6117e3848484610ce5565b6117f76117ee6120bb565b858585856126db565b50505050565b6118056120d5565b600e548110611849576040517f08c379a000000000000000000000000000000000000000000000000000000000815260040161184090613d25565b60405180910390fd5b6000600d600083815260200190815260200160002060405180606001604052908160008201548152602001600182015481526020016002820160009054906101000a900460ff161515151581525050905080604001516118de576040517f08c379a00000000000000000000000000000000000000000000000000000000081526004016118d590613d91565b60405180910390fd5b8060200151341015611925576040517f08c379a000000000000000000000000000000000000000000000000000000000815260040161191c906138ec565b60405180910390fd5b8060000151600960003373ffffffffffffffffffffffffffffffffffffffff1673ffffffffffffffffffffffffffffffffffffffff16815260200190815260200160002060008282546119789190613be0565b9250508190555080602001513411156119e2573373ffffffffffffffffffffffffffffffffffffffff166108fc8260200151346119b59190613983565b9081150290604051600060405180830381858888f193505050501580156119e0573d6000803e3d6000fd5b505b3373ffffffffffffffffffffffffffffffffffffffff167ffb82fc1c5adf84899709e87563b69dd5f4ac33320f1c60dbca744bec717eb90f82600001518360200151604051611a32929190613cb0565b60405180910390a250611a43612139565b50565b611a4e612f68565b600c60008373ffffffffffffffffffffffffffffffffffffffff1673ffffffffffffffffffffffffffffffffffffffff16815260200190815260200160002060405180606001604052908160008201548152602001600182015481526020016002820154815250509050919050565b6060611ac882611ff6565b506000611ad361288c565b90506000815111611af35760405180602001604052806000815250611b1e565b80611afd846128a3565b604051602001611b0e929190613ded565b6040516020818303038152906040525b915050919050565b600a6020528060005260406000206000915054906101000a900460ff1681565b611b4e61235d565b80600960008473ffffffffffffffffffffffffffffffffffffffff1673ffffffffffffffffffffffffffffffffffffffff1681526020019081526020016000206000828254611b9d9190613be0565b925050819055508173ffffffffffffffffffffffffffffffffffffffff167ffb82fc1c5adf84899709e87563b69dd5f4ac33320f1c60dbca744bec717eb90f826000604051611bed929190613e56565b60405180910390a25050565b600d6020528060005260406000206000915090508060000154908060010154908060020160009054906101000a900460ff16905083565b611c3861235d565b600e548110611c7c576040517f08c379a0000000000000000000000000000000000000000000000000000000008152600401611c7390613d25565b60405180910390fd5b600d600082815260200190815260200160002060020160009054906101000a900460ff1615600d600083815260200190815260200160002060020160006101000a81548160ff02191690831515021790555050565b600c6020528060005260406000206000915090508060000154908060010154908060020154905083565b6000600560008473ffffffffffffffffffffffffffffffffffffffff1673ffffffffffffffffffffffffffffffffffffffff16815260200190815260200160002060008373ffffffffffffffffffffffffffffffffffffffff1673ffffffffffffffffffffffffffffffffffffffff16815260200190815260200160002060009054906101000a900460ff16905092915050565b600e5481565b611d9d61235d565b600073ffffffffffffffffffffffffffffffffffffffff168173ffffffffffffffffffffffffffffffffffffffff1603611e0f5760006040517f1e4fbdf7000000000000000000000000000000000000000000000000000000008152600401611e0691906131ae565b60405180910390fd5b611e18816124a6565b50565b60006306400000821115611e325760009050611f85565b600a60008573ffffffffffffffffffffffffffffffffffffffff1673ffffffffffffffffffffffffffffffffffffffff16815260200190815260200160002060009054906101000a900460ff1615611e8d5760019050611f85565b82600960008673ffffffffffffffffffffffffffffffffffffffff1673ffffffffffffffffffffffffffffffffffffffff168152602001908152602001600020541015611edd5760009050611f85565b60006303200000600960008773ffffffffffffffffffffffffffffffffffffffff1673ffffffffffffffffffffffffffffffffffffffff16815260200190815260200160002054611f2e9190613b9e565b90508083600c60008873ffffffffffffffffffffffffffffffffffffffff1673ffffffffffffffffffffffffffffffffffffffff16815260200190815260200160002060000154611f7f9190613be0565b11159150505b9392505050565b60007f01ffc9a7000000000000000000000000000000000000000000000000000000007bffffffffffffffffffffffffffffffffffffffffffffffffffffffff1916827bffffffffffffffffffffffffffffffffffffffffffffffffffffffff1916149050919050565b60008061200283612971565b9050600073ffffffffffffffffffffffffffffffffffffffff168173ffffffffffffffffffffffffffffffffffffffff160361207557826040517f7e27328900000000000000000000000000000000000000000000000000000000815260040161206c9190613271565b60405180910390fd5b80915050919050565b60006004600083815260200190815260200160002060009054906101000a900473ffffffffffffffffffffffffffffffffffffffff169050919050565b600033905090565b6120d083838360016129ae565b505050565b600260075403612111576040517f3ee5aeb500000000000000000000000000000000000000000000000000000000815260040160405180910390fd5b6002600781905550565b612135828260405180602001604052806000815250612b73565b5050565b6001600781905550565b60008061214f84612971565b9050600073ffffffffffffffffffffffffffffffffffffffff168373ffffffffffffffffffffffffffffffffffffffff161461219157612190818486612b97565b5b600073ffffffffffffffffffffffffffffffffffffffff168173ffffffffffffffffffffffffffffffffffffffff1614612222576121d36000856000806129ae565b6001600360008373ffffffffffffffffffffffffffffffffffffffff1673ffffffffffffffffffffffffffffffffffffffff168152602001908152602001600020600082825403925050819055505b600073ffffffffffffffffffffffffffffffffffffffff168573ffffffffffffffffffffffffffffffffffffffff16146122a5576001600360008773ffffffffffffffffffffffffffffffffffffffff1673ffffffffffffffffffffffffffffffffffffffff168152602001908152602001600020600082825401925050819055505b846002600086815260200190815260200160002060006101000a81548173ffffffffffffffffffffffffffffffffffffffff021916908373ffffffffffffffffffffffffffffffffffffffff160217905550838573ffffffffffffffffffffffffffffffffffffffff168273ffffffffffffffffffffffffffffffffffffffff167fddf252ad1be2c89b69c2b068fc378daa952ba7f163c4a11628f55a4df523b3ef60405160405180910390a4809150509392505050565b6123656120bb565b73ffffffffffffffffffffffffffffffffffffffff166123836115cb565b73ffffffffffffffffffffffffffffffffffffffff16146123e2576123a66120bb565b6040517f118cdaa70000000000000000000000000000000000000000000000000000000081526004016123d991906131ae565b60405180910390fd5b565b604051806060016040528083815260200182815260200160011515815250600d6000600e548152602001908152602001600020600082015181600001556020820151816001015560408201518160020160006101000a81548160ff021916908315150217905550905050600e547f9171a384880774556fda4542d1c513dbebdb7cad3449e2bd0edde920a1e96fe48383604051612482929190613cb0565b60405180910390a2600e600081548092919061249d9061393b565b91905055505050565b6000600660009054906101000a900473ffffffffffffffffffffffffffffffffffffffff16905081600660006101000a81548173ffffffffffffffffffffffffffffffffffffffff021916908373ffffffffffffffffffffffffffffffffffffffff1602179055508173ffffffffffffffffffffffffffffffffffffffff168173ffffffffffffffffffffffffffffffffffffffff167f8be0079c531659141344cd1fd0a4f28419497f9722a3daafe3b4186f6b6457e060405160405180910390a35050565b600073ffffffffffffffffffffffffffffffffffffffff168273ffffffffffffffffffffffffffffffffffffffff16036125dd57816040517f5b08ba180000000000000000000000000000000000000000000000000000000081526004016125d491906131ae565b60405180910390fd5b80600560008573ffffffffffffffffffffffffffffffffffffffff1673ffffffffffffffffffffffffffffffffffffffff16815260200190815260200160002060008473ffffffffffffffffffffffffffffffffffffffff1673ffffffffffffffffffffffffffffffffffffffff16815260200190815260200160002060006101000a81548160ff0219169083151502179055508173ffffffffffffffffffffffffffffffffffffffff168373ffffffffffffffffffffffffffffffffffffffff167f17307eab39ab6107e8899845ad3d59bd9653f200f220920489ca2b5937696c31836040516126ce919061303d565b60405180910390a3505050565b60008373ffffffffffffffffffffffffffffffffffffffff163b1115612885578273ffffffffffffffffffffffffffffffffffffffff1663150b7a02868685856040518563ffffffff1660e01b815260040161273a9493929190613ed4565b6020604051808303816000875af192505050801561277657506040513d601f19601f820116820180604052508101906127739190613f35565b60015b6127fa573d80600081146127a6576040519150601f19603f3d011682016040523d82523d6000602084013e6127ab565b606091505b5060008151036127f257836040517f64a0ae920000000000000000000000000000000000000000000000000000000081526004016127e991906131ae565b60405180910390fd5b805181602001fd5b63150b7a0260e01b7bffffffffffffffffffffffffffffffffffffffffffffffffffffffff1916817bffffffffffffffffffffffffffffffffffffffffffffffffffffffff19161461288357836040517f64a0ae9200000000000000000000000000000000000000000000000000000000815260040161287a91906131ae565b60405180910390fd5b505b5050505050565b606060405180602001604052806000815250905090565b6060600060016128b284612c5b565b01905060008167ffffffffffffffff8111156128d1576128d0613329565b5b6040519080825280601f01601f1916602001820160405280156129035781602001600182028036833780820191505090505b509050600082602001820190505b600115612966578080600190039150507f3031323334353637383961626364656600000000000000000000000000000000600a86061a8153600a858161295a57612959613f62565b5b04945060008503612911575b819350505050919050565b60006002600083815260200190815260200160002060009054906101000a900473ffffffffffffffffffffffffffffffffffffffff169050919050565b80806129e75750600073ffffffffffffffffffffffffffffffffffffffff168273ffffffffffffffffffffffffffffffffffffffff1614155b15612b1b5760006129f784611ff6565b9050600073ffffffffffffffffffffffffffffffffffffffff168373ffffffffffffffffffffffffffffffffffffffff1614158015612a6257508273ffffffffffffffffffffffffffffffffffffffff168173ffffffffffffffffffffffffffffffffffffffff1614155b8015612a755750612a738184611cfb565b155b15612ab757826040517fa9fbf51f000000000000000000000000000000000000000000000000000000008152600401612aae91906131ae565b60405180910390fd5b8115612b1957838573ffffffffffffffffffffffffffffffffffffffff168273ffffffffffffffffffffffffffffffffffffffff167f8c5be1e5ebec7d5bd14f71427d1e84f3dd0314c0f7b2291e5b200ac8c7c3b92560405160405180910390a45b505b836004600085815260200190815260200160002060006101000a81548173ffffffffffffffffffffffffffffffffffffffff021916908373ffffffffffffffffffffffffffffffffffffffff16021790555050505050565b612b7d8383612dae565b612b92612b886120bb565b60008585856126db565b505050565b612ba2838383612ea7565b612c5657600073ffffffffffffffffffffffffffffffffffffffff168373ffffffffffffffffffffffffffffffffffffffff1603612c1757806040517f7e273289000000000000000000000000000000000000000000000000000000008152600401612c0e9190613271565b60405180910390fd5b81816040517f177e802f000000000000000000000000000000000000000000000000000000008152600401612c4d929190613f91565b60405180910390fd5b505050565b600080600090507a184f03e93ff9f4daa797ed6e38ed64bf6a1f0100000000000000008310612cb9577a184f03e93ff9f4daa797ed6e38ed64bf6a1f0100000000000000008381612caf57612cae613f62565b5b0492506040810190505b6d04ee2d6d415b85acef81000000008310612cf6576d04ee2d6d415b85acef81000000008381612cec57612ceb613f62565b5b0492506020810190505b662386f26fc100008310612d2557662386f26fc100008381612d1b57612d1a613f62565b5b0492506010810190505b6305f5e1008310612d4e576305f5e1008381612d4457612d43613f62565b5b0492506008810190505b6127108310612d73576127108381612d6957612d68613f62565b5b0492506004810190505b60648310612d965760648381612d8c57612d8b613f62565b5b0492506002810190505b600a8310612da5576001810190505b80915050919050565b600073ffffffffffffffffffffffffffffffffffffffff168273ffffffffffffffffffffffffffffffffffffffff1603612e205760006040517f64a0ae92000000000000000000000000000000000000000000000000000000008152600401612e1791906131ae565b60405180910390fd5b6000612e2e83836000612143565b9050600073ffffffffffffffffffffffffffffffffffffffff168173ffffffffffffffffffffffffffffffffffffffff1614612ea25760006040517f73c6ac6e000000000000000000000000000000000000000000000000000000008152600401612e9991906131ae565b60405180910390fd5b505050565b60008073ffffffffffffffffffffffffffffffffffffffff168373ffffffffffffffffffffffffffffffffffffffff1614158015612f5f57508273ffffffffffffffffffffffffffffffffffffffff168473ffffffffffffffffffffffffffffffffffffffff161480612f205750612f1f8484611cfb565b5b80612f5e57508273ffffffffffffffffffffffffffffffffffffffff16612f468361207e565b73ffffffffffffffffffffffffffffffffffffffff16145b5b90509392505050565b60405180606001604052806000815260200160008152602001600081525090565b6000604051905090565b600080fd5b600080fd5b60007fffffffff0000000000000000000000000000000000000000000000000000000082169050919050565b612fd281612f9d565b8114612fdd57600080fd5b50565b600081359050612fef81612fc9565b92915050565b60006020828403121561300b5761300a612f93565b5b600061301984828501612fe0565b91505092915050565b60008115159050919050565b61303781613022565b82525050565b6000602082019050613052600083018461302e565b92915050565b600081519050919050565b600082825260208201905092915050565b60005b83811015613092578082015181840152602081019050613077565b60008484015250505050565b6000601f19601f8301169050919050565b60006130ba82613058565b6130c48185613063565b93506130d4818560208601613074565b6130dd8161309e565b840191505092915050565b6000602082019050818103600083015261310281846130af565b905092915050565b6000819050919050565b61311d8161310a565b811461312857600080fd5b50565b60008135905061313a81613114565b92915050565b60006020828403121561315657613155612f93565b5b60006131648482850161312b565b91505092915050565b600073ffffffffffffffffffffffffffffffffffffffff82169050919050565b60006131988261316d565b9050919050565b6131a88161318d565b82525050565b60006020820190506131c3600083018461319f565b92915050565b6131d28161318d565b81146131dd57600080fd5b50565b6000813590506131ef816131c9565b92915050565b6000806040838503121561320c5761320b612f93565b5b600061321a858286016131e0565b925050602061322b8582860161312b565b9150509250929050565b60006020828403121561324b5761324a612f93565b5b6000613259848285016131e0565b91505092915050565b61326b8161310a565b82525050565b60006020820190506132866000830184613262565b92915050565b6000806000606084860312156132a5576132a4612f93565b5b60006132b3868287016131e0565b93505060206132c4868287016131e0565b92505060406132d58682870161312b565b9150509250925092565b600080604083850312156132f6576132f5612f93565b5b60006133048582860161312b565b92505060206133158582860161312b565b9150509250929050565b600080fd5b600080fd5b7f4e487b7100000000000000000000000000000000000000000000000000000000600052604160045260246000fd5b6133618261309e565b810181811067ffffffffffffffff821117156133805761337f613329565b5b80604052505050565b6000613393612f89565b905061339f8282613358565b919050565b600067ffffffffffffffff8211156133bf576133be613329565b5b6133c88261309e565b9050602081019050919050565b82818337600083830152505050565b60006133f76133f2846133a4565b613389565b90508281526020810184848401111561341357613412613324565b5b61341e8482856133d5565b509392505050565b600082601f83011261343b5761343a61331f565b5b813561344b8482602086016133e4565b91505092915050565b6000806000806080858703121561346e5761346d612f93565b5b600061347c878288016131e0565b945050602061348d8782880161312b565b935050604061349e8782880161312b565b925050606085013567ffffffffffffffff8111156134bf576134be612f98565b5b6134cb87828801613426565b91505092959194509250565b6134e081613022565b81146134eb57600080fd5b50565b6000813590506134fd816134d7565b92915050565b6000806040838503121561351a57613519612f93565b5b6000613528858286016131e0565b9250506020613539858286016134ee565b9150509250929050565b600067ffffffffffffffff82111561355e5761355d613329565b5b6135678261309e565b9050602081019050919050565b600061358761358284613543565b613389565b9050828152602081018484840111156135a3576135a2613324565b5b6135ae8482856133d5565b509392505050565b600082601f8301126135cb576135ca61331f565b5b81356135db848260208601613574565b91505092915050565b600080600080608085870312156135fe576135fd612f93565b5b600061360c878288016131e0565b945050602061361d878288016131e0565b935050604061362e8782880161312b565b925050606085013567ffffffffffffffff81111561364f5761364e612f98565b5b61365b878288016135b6565b91505092959194509250565b6136708161310a565b82525050565b60608201600082015161368c6000850182613667565b50602082015161369f6020850182613667565b5060408201516136b26040850182613667565b50505050565b60006060820190506136cd6000830184613676565b92915050565b60006060820190506136e86000830186613262565b6136f56020830185613262565b613702604083018461302e565b949350505050565b600060608201905061371f6000830186613262565b61372c6020830185613262565b6137396040830184613262565b949350505050565b6000806040838503121561375857613757612f93565b5b6000613766858286016131e0565b9250506020613777858286016131e0565b9150509250929050565b60008060006060848603121561379a57613799612f93565b5b60006137a8868287016131e0565b93505060206137b98682870161312b565b92505060406137ca8682870161312b565b9150509250925092565b7f4e487b7100000000000000000000000000000000000000000000000000000000600052602260045260246000fd5b6000600282049050600182168061381b57607f821691505b60208210810361382e5761382d6137d4565b5b50919050565b7f416c7265616479206861732050726f204e465400000000000000000000000000600082015250565b600061386a601383613063565b915061387582613834565b602082019050919050565b600060208201905081810360008301526138998161385d565b9050919050565b7f496e73756666696369656e74207061796d656e74000000000000000000000000600082015250565b60006138d6601483613063565b91506138e1826138a0565b602082019050919050565b60006020820190508181036000830152613905816138c9565b9050919050565b7f4e487b7100000000000000000000000000000000000000000000000000000000600052601160045260246000fd5b60006139468261310a565b91507fffffffffffffffffffffffffffffffffffffffffffffffffffffffffffffffff82036139785761397761390c565b5b600182019050919050565b600061398e8261310a565b91506139998361310a565b92508282039050818111156139b1576139b061390c565b5b92915050565b60006060820190506139cc600083018661319f565b6139d96020830185613262565b6139e6604083018461319f565b949350505050565b7f4e6f2066756e647320746f207769746864726177000000000000000000000000600082015250565b6000613a24601483613063565b9150613a2f826139ee565b602082019050919050565b60006020820190508181036000830152613a5381613a17565b9050919050565b7f4e6f7420617574686f72697a6564000000000000000000000000000000000000600082015250565b6000613a90600e83613063565b9150613a9b82613a5a565b602082019050919050565b60006020820190508181036000830152613abf81613a83565b9050919050565b7f46696c6520746f6f206c61726765000000000000000000000000000000000000600082015250565b6000613afc600e83613063565b9150613b0782613ac6565b602082019050919050565b60006020820190508181036000830152613b2b81613aef565b9050919050565b7f496e73756666696369656e742063726564697473000000000000000000000000600082015250565b6000613b68601483613063565b9150613b7382613b32565b602082019050919050565b60006020820190508181036000830152613b9781613b5b565b9050919050565b6000613ba98261310a565b9150613bb48361310a565b9250828202613bc28161310a565b91508282048414831517613bd957613bd861390c565b5b5092915050565b6000613beb8261310a565b9150613bf68361310a565b9250828201905080821115613c0e57613c0d61390c565b5b92915050565b7f53746f72616765206c696d697420657863656564656400000000000000000000600082015250565b6000613c4a601683613063565b9150613c5582613c14565b602082019050919050565b60006020820190508181036000830152613c7981613c3d565b9050919050565b6000604082019050613c956000830185613262565b8181036020830152613ca781846130af565b90509392505050565b6000604082019050613cc56000830185613262565b613cd26020830184613262565b9392505050565b7f496e76616c6964207061636b6167650000000000000000000000000000000000600082015250565b6000613d0f600f83613063565b9150613d1a82613cd9565b602082019050919050565b60006020820190508181036000830152613d3e81613d02565b9050919050565b7f5061636b616765206e6f74206163746976650000000000000000000000000000600082015250565b6000613d7b601283613063565b9150613d8682613d45565b602082019050919050565b60006020820190508181036000830152613daa81613d6e565b9050919050565b600081905092915050565b6000613dc782613058565b613dd18185613db1565b9350613de1818560208601613074565b80840191505092915050565b6000613df98285613dbc565b9150613e058284613dbc565b91508190509392505050565b6000819050919050565b6000819050919050565b6000613e40613e3b613e3684613e11565b613e1b565b61310a565b9050919050565b613e5081613e25565b82525050565b6000604082019050613e6b6000830185613262565b613e786020830184613e47565b9392505050565b600081519050919050565b600082825260208201905092915050565b6000613ea682613e7f565b613eb08185613e8a565b9350613ec0818560208601613074565b613ec98161309e565b840191505092915050565b6000608082019050613ee9600083018761319f565b613ef6602083018661319f565b613f036040830185613262565b8181036060830152613f158184613e9b565b905095945050505050565b600081519050613f2f81612fc9565b92915050565b600060208284031215613f4b57613f4a612f93565b5b6000613f5984828501613f20565b91505092915050565b7f4e487b7100000000000000000000000000000000000000000000000000000000600052601260045260246000fd5b6000604082019050613fa6600083018561319f565b613fb36020830184613262565b939250505056fea264697066735822122042de1aa485b069d99bae3dbd37f07313f52111edcce660588af2e3d21b13da4264736f6c63430008180033",
  "linkReferences": {},
  "deployedLinkReferences": {}
}