{
  "_format": "hh-sol-artifact-1",
  "contractName": "CreatorLicensing",
  "sourceName": "contracts/CreatorLicensing.sol",
  "abi": [
    {
      "inputs": [
        {
          "internalType": "address",
          "name": "initialOwner",
          "type": "address"
        }
      ],
      "stateMutability": "nonpayable",
      "type": "constructor"
    },
    {
      "inputs": [
        {
          "internalType": "address",
          "name": "owner",
          "type": "address"
        }
      ],
      "name": "OwnableInvalidOwner",
      "type": "error"
    },
    {
      "inputs": [
        {
          "internalType": "address",
          "name": "account",
          "type": "address"
        }
      ],
      "name": "OwnableUnauthorizedAccount",
      "type": "error"
    },
    {
      "inputs": [],
      "name": "ReentrancyGuardReentrantCall",
      "type": "error"
    },
    {
      "anonymous": false,
      "inputs": [
        {
          "indexed": true,
          "internalType": "uint256",
          "name": "negotiationId",
          "type": "uint256"
        },
        {
          "indexed": false,
          "internalType": "uint256",
          "name": "amount",
          "type": "uint256"
        }
      ],
      "name": "LicensePaid",
      "type": "event"
    },
    {
      "anonymous": false,
      "inputs": [
        {
          "indexed": true,
          "internalType": "uint256",
          "name": "negotiationId",
          "type": "uint256"
        }
      ],
      "name": "NegotiationAccepted",
      "type": "event"
    },
    {
      "anonymous": false,
      "inputs": [
        {
          "indexed": true,
          "internalType": "uint256",
          "name": "negotiationId",
          "type": "uint256"
        },
        {
          "indexed": true,
          "internalType": "uint256",
          "name": "beatNftId",
          "type": "uint256"
        },
        {
          "indexed": true,
          "internalType": "address",
          "name": "creator",
          "type": "address"
        },
        {
          "indexed": false,
          "internalType": "address",
          "name": "producer",
          "type": "address"
        },
        {
          "indexed": false,
          "internalType": "uint256",
          "name": "proposedPrice",
          "type": "uint256"
        },
        {
          "indexed": false,
          "internalType": "uint256",
          "name": "creatorRoyaltyShare",
          "type": "uint256"
        }
      ],
      "name": "NegotiationCreated",
      "type": "event"
    },
    {
      "anonymous": false,
      "inputs": [
        {
          "indexed": true,
          "internalType": "address",
          "name": "previousOwner",
          "type": "address"
        },
        {
          "indexed": true,
          "internalType": "address",
          "name": "newOwner",
          "type": "address"
        }
      ],
      "name": "OwnershipTransferred",
      "type": "event"
    },
    {
      "inputs": [],
      "name": "BASIS_POINTS",
      "outputs": [
        {
          "internalType": "uint256",
          "name": "",
          "type": "uint256"
        }
      ],
      "stateMutability": "view",
      "type": "function"
    },
    {
      "inputs": [],
      "name": "PLATFORM_FEE",
      "outputs": [
        {
          "internalType": "uint256",
          "name": "",
          "type": "uint256"
        }
      ],
      "stateMutability": "view",
      "type": "function"
    },
    {
      "inputs": [
        {
          "internalType": "uint256",
          "name": "_negotiationId",
          "type": "uint256"
        }
      ],
      "name": "acceptNegotiation",
      "outputs": [],
      "stateMutability": "nonpayable",
      "type": "function"
    },
    {
      "inputs": [
        {
          "internalType": "uint256",
          "name": "_beatNftId",
          "type": "uint256"
        },
        {
          "internalType": "address",
          "name": "_producer",
          "type": "address"
        },
        {
          "internalType": "uint256",
          "name": "_proposedPrice",
          "type": "uint256"
        },
        {
          "internalType": "uint256",
          "name": "_creatorRoyaltyShare",
          "type": "uint256"
        },
        {
          "internalType": "string",
          "name": "_message",
          "type": "string"
        }
      ],
      "name": "createNegotiation",
      "outputs": [],
      "stateMutability": "nonpayable",
      "type": "function"
    },
    {
      "inputs": [
        {
          "internalType": "address",
          "name": "",
          "type": "address"
        },
        {
          "internalType": "uint256",
          "name": "",
          "type": "uint256"
        }
      ],
      "name": "creatorNegotiations",
      "outputs": [
        {
          "internalType": "uint256",
          "name": "",
          "type": "uint256"
        }
      ],
      "stateMutability": "view",
      "type": "function"
    },
    {
      "inputs": [
        {
          "internalType": "address",
          "name": "_creator",
          "type": "address"
        }
      ],
      "name": "getCreatorNegotiations",
      "outputs": [
        {
          "internalType": "uint256[]",
          "name": "",
          "type": "uint256[]"
        }
      ],
      "stateMutability": "view",
      "type": "function"
    },
    {
      "inputs": [
        {
          "internalType": "address",
          "name": "_producer",
          "type": "address"
        }
      ],
      "name": "getProducerNegotiations",
      "outputs": [
        {
          "internalType": "uint256[]",
          "name": "",
          "type": "uint256[]"
        }
      ],
      "stateMutability": "view",
      "type": "function"
    },
    {
      "inputs": [],
      "name": "negotiationCounter",
      "outputs": [
        {
          "internalType": "uint256",
          "name": "",
          "type": "uint256"
        }
      ],
      "stateMutability": "view",
      "type": "function"
    },
    {
      "inputs": [
        {
          "internalType": "uint256",
          "name": "",
          "type": "uint256"
        }
      ],
      "name": "negotiations",
      "outputs": [
        {
          "internalType": "uint256",
          "name": "beatNftId",
          "type": "uint256"
        },
        {
          "internalType": "address",
          "name": "creator",
          "type": "address"
        },
        {
          "internalType": "address",
          "name": "producer",
          "type": "address"
        },
        {
          "internalType": "uint256",
          "name": "proposedPrice",
          "type": "uint256"
        },
        {
          "internalType": "uint256",
          "name": "creatorRoyaltyShare",
          "type": "uint256"
        },
        {
          "internalType": "string",
          "name": "message",
          "type": "string"
        },
        {
          "internalType": "bool",
          "name": "isAccepted",
          "type": "bool"
        },
        {
          "internalType": "bool",
          "name": "isPaid",
          "type": "bool"
        },
        {
          "internalType": "uint256",
          "name": "timestamp",
          "type": "uint256"
        }
      ],
      "stateMutability": "view",
      "type": "function"
    },
    {
      "inputs": [],
      "name": "owner",
      "outputs": [
        {
          "internalType": "address",
          "name": "",
          "type": "address"
        }
      ],
      "stateMutability": "view",
      "type": "function"
    },
    {
      "inputs": [
        {
          "internalType": "uint256",
          "name": "_negotiationId",
          "type": "uint256"
        }
      ],
      "name": "payLicense",
      "outputs": [],
      "stateMutability": "payable",
      "type": "function"
    },
    {
      "inputs": [
        {
          "internalType": "address",
          "name": "",
          "type": "address"
        },
        {
          "internalType": "uint256",
          "name": "",
          "type": "uint256"
        }
      ],
      "name": "producerNegotiations",
      "outputs": [
        {
          "internalType": "uint256",
          "name": "",
          "type": "uint256"
        }
      ],
      "stateMutability": "view",
      "type": "function"
    },
    {
      "inputs": [],
      "name": "renounceOwnership",
      "outputs": [],
      "stateMutability": "nonpayable",
      "type": "function"
    },
    {
      "inputs": [
        {
          "internalType": "address",
          "name": "newOwner",
          "type": "address"
        }
      ],
      "name": "transferOwnership",
      "outputs": [],
      "stateMutability": "nonpayable",
      "type": "function"
    }
  ],
  "bytecode": "0x60806040523480156200001157600080fd5b5060405162002052380380620020528339818101604052810190620000379190620001fe565b806001600081905550600073ffffffffffffffffffffffffffffffffffffffff168173ffffffffffffffffffffffffffffffffffffffff1603620000b55760006040517f1e4fbdf7000000000000000000000000000000000000000000000000000000008152600401620000ac919062000241565b60405180910390fd5b620000c681620000ce60201b60201c565b50506200025e565b6000600160009054906101000a900473ffffffffffffffffffffffffffffffffffffffff16905081600160006101000a81548173ffffffffffffffffffffffffffffffffffffffff021916908373ffffffffffffffffffffffffffffffffffffffff1602179055508173ffffffffffffffffffffffffffffffffffffffff168173ffffffffffffffffffffffffffffffffffffffff167f8be0079c531659141344cd1fd0a4f28419497f9722a3daafe3b4186f6b6457e060405160405180910390a35050565b600080fd5b600073ffffffffffffffffffffffffffffffffffffffff82169050919050565b6000620001c68262000199565b9050919050565b620001d881620001b9565b8114620001e457600080fd5b50565b600081519050620001f881620001cd565b92915050565b60006020828403121562000217576200021662000194565b5b60006200022784828501620001e7565b91505092915050565b6200023b81620001b9565b82525050565b600060208201905062000258600083018462000230565b92915050565b611de4806200026e6000396000f3fe6080604052600436106100dd5760003560e01c8063bc6b6a651161007f578063e1f1c4a711610059578063e1f1c4a7146102cf578063e916c00b146102fa578063f013cd7814610323578063f2fde38b1461034c576100dd565b8063bc6b6a6514610210578063bfe7c1771461024d578063dcd906e11461028a576100dd565b80635ac5ea61116100bb5780635ac5ea6114610166578063715018a6146101a35780638da5cb5b146101ba578063a1823be1146101e5576100dd565b80632b8773e8146100e257806334fbc9a11461011f57806350cccbd21461014a575b600080fd5b3480156100ee57600080fd5b50610109600480360381019061010491906110dd565b610375565b60405161011691906111d2565b60405180910390f35b34801561012b57600080fd5b5061013461040c565b6040516101419190611203565b60405180910390f35b610164600480360381019061015f919061124a565b610412565b005b34801561017257600080fd5b5061018d60048036038101906101889190611277565b610724565b60405161019a9190611203565b60405180910390f35b3480156101af57600080fd5b506101b8610755565b005b3480156101c657600080fd5b506101cf610769565b6040516101dc91906112c6565b60405180910390f35b3480156101f157600080fd5b506101fa610793565b6040516102079190611203565b60405180910390f35b34801561021c57600080fd5b50610237600480360381019061023291906110dd565b610799565b60405161024491906111d2565b60405180910390f35b34801561025957600080fd5b50610274600480360381019061026f9190611277565b610830565b6040516102819190611203565b60405180910390f35b34801561029657600080fd5b506102b160048036038101906102ac919061124a565b610861565b6040516102c69998979695949392919061138c565b60405180910390f35b3480156102db57600080fd5b506102e4610991565b6040516102f19190611203565b60405180910390f35b34801561030657600080fd5b50610321600480360381019061031c919061124a565b610997565b005b34801561032f57600080fd5b5061034a60048036038101906103459190611555565b610ae0565b005b34801561035857600080fd5b50610373600480360381019061036e91906110dd565b610e40565b005b6060600360008373ffffffffffffffffffffffffffffffffffffffff1673ffffffffffffffffffffffffffffffffffffffff16815260200190815260200160002080548060200260200160405190810160405280929190818152602001828054801561040057602002820191906000526020600020905b8154815260200190600101908083116103ec575b50505050509050919050565b6105dc81565b61041a610ec6565b60006002600083815260200190815260200160002090503373ffffffffffffffffffffffffffffffffffffffff168160010160009054906101000a900473ffffffffffffffffffffffffffffffffffffffff1673ffffffffffffffffffffffffffffffffffffffff16146104c3576040517f08c379a00000000000000000000000000000000000000000000000000000000081526004016104ba90611638565b60405180910390fd5b8060060160009054906101000a900460ff16610514576040517f08c379a000000000000000000000000000000000000000000000000000000000815260040161050b906116a4565b60405180910390fd5b8060060160019054906101000a900460ff1615610566576040517f08c379a000000000000000000000000000000000000000000000000000000000815260040161055d90611710565b60405180910390fd5b806003015434146105ac576040517f08c379a00000000000000000000000000000000000000000000000000000000081526004016105a39061177c565b60405180910390fd5b60018160060160016101000a81548160ff02191690831515021790555060006127106105dc346105dc91906117cb565b6105e6919061183c565b905060006127108360040154346105fd91906117cb565b610607919061183c565b90506000818334610618919061186d565b610622919061186d565b905061062c610769565b73ffffffffffffffffffffffffffffffffffffffff166108fc849081150290604051600060405180830381858888f19350505050158015610671573d6000803e3d6000fd5b508360020160009054906101000a900473ffffffffffffffffffffffffffffffffffffffff1673ffffffffffffffffffffffffffffffffffffffff166108fc829081150290604051600060405180830381858888f193505050501580156106dc573d6000803e3d6000fd5b50847f9719028f9547951c3e5ae98122140c6cb81a097a32b37b61fb6632b49a6228453460405161070d9190611203565b60405180910390a250505050610721610f0c565b50565b6003602052816000526040600020818154811061074057600080fd5b90600052602060002001600091509150505481565b61075d610f16565b6107676000610f9d565b565b6000600160009054906101000a900473ffffffffffffffffffffffffffffffffffffffff16905090565b60055481565b6060600460008373ffffffffffffffffffffffffffffffffffffffff1673ffffffffffffffffffffffffffffffffffffffff16815260200190815260200160002080548060200260200160405190810160405280929190818152602001828054801561082457602002820191906000526020600020905b815481526020019060010190808311610810575b50505050509050919050565b6004602052816000526040600020818154811061084c57600080fd5b90600052602060002001600091509150505481565b60026020528060005260406000206000915090508060000154908060010160009054906101000a900473ffffffffffffffffffffffffffffffffffffffff16908060020160009054906101000a900473ffffffffffffffffffffffffffffffffffffffff16908060030154908060040154908060050180546108e2906118d0565b80601f016020809104026020016040519081016040528092919081815260200182805461090e906118d0565b801561095b5780601f106109305761010080835404028352916020019161095b565b820191906000526020600020905b81548152906001019060200180831161093e57829003601f168201915b5050505050908060060160009054906101000a900460ff16908060060160019054906101000a900460ff16908060070154905089565b61271081565b60006002600083815260200190815260200160002090503373ffffffffffffffffffffffffffffffffffffffff168160020160009054906101000a900473ffffffffffffffffffffffffffffffffffffffff1673ffffffffffffffffffffffffffffffffffffffff1614610a40576040517f08c379a0000000000000000000000000000000000000000000000000000000008152600401610a379061194d565b60405180910390fd5b8060060160009054906101000a900460ff1615610a92576040517f08c379a0000000000000000000000000000000000000000000000000000000008152600401610a89906119b9565b60405180910390fd5b60018160060160006101000a81548160ff021916908315150217905550817f8c51415d748d932f3d38ff8dc940f2865a200279e04e0e310d9412484706670a60405160405180910390a25050565b611194821115610b25576040517f08c379a0000000000000000000000000000000000000000000000000000000008152600401610b1c90611a25565b60405180910390fd5b60008311610b68576040517f08c379a0000000000000000000000000000000000000000000000000000000008152600401610b5f90611a91565b60405180910390fd5b600060056000815480929190610b7d90611ab1565b9190505590506040518061012001604052808781526020013373ffffffffffffffffffffffffffffffffffffffff1681526020018673ffffffffffffffffffffffffffffffffffffffff16815260200185815260200184815260200183815260200160001515815260200160001515815260200142815250600260008381526020019081526020016000206000820151816000015560208201518160010160006101000a81548173ffffffffffffffffffffffffffffffffffffffff021916908373ffffffffffffffffffffffffffffffffffffffff16021790555060408201518160020160006101000a81548173ffffffffffffffffffffffffffffffffffffffff021916908373ffffffffffffffffffffffffffffffffffffffff160217905550606082015181600301556080820151816004015560a0820151816005019081610cc99190611ca5565b5060c08201518160060160006101000a81548160ff02191690831515021790555060e08201518160060160016101000a81548160ff0219169083151502179055506101008201518160070155905050600360003373ffffffffffffffffffffffffffffffffffffffff1673ffffffffffffffffffffffffffffffffffffffff168152602001908152602001600020819080600181540180825580915050600190039060005260206000200160009091909190915055600460008673ffffffffffffffffffffffffffffffffffffffff1673ffffffffffffffffffffffffffffffffffffffff1681526020019081526020016000208190806001815401808255809150506001900390600052602060002001600090919091909150553373ffffffffffffffffffffffffffffffffffffffff1686827f4845800026bc41f43ce1d78749bbdb1a5495770cb88b8a0d3f38bc1778792ad4888888604051610e3093929190611d77565b60405180910390a4505050505050565b610e48610f16565b600073ffffffffffffffffffffffffffffffffffffffff168173ffffffffffffffffffffffffffffffffffffffff1603610eba5760006040517f1e4fbdf7000000000000000000000000000000000000000000000000000000008152600401610eb191906112c6565b60405180910390fd5b610ec381610f9d565b50565b600260005403610f02576040517f3ee5aeb500000000000000000000000000000000000000000000000000000000815260040160405180910390fd5b6002600081905550565b6001600081905550565b610f1e611063565b73ffffffffffffffffffffffffffffffffffffffff16610f3c610769565b73ffffffffffffffffffffffffffffffffffffffff1614610f9b57610f5f611063565b6040517f118cdaa7000000000000000000000000000000000000000000000000000000008152600401610f9291906112c6565b60405180910390fd5b565b6000600160009054906101000a900473ffffffffffffffffffffffffffffffffffffffff16905081600160006101000a81548173ffffffffffffffffffffffffffffffffffffffff021916908373ffffffffffffffffffffffffffffffffffffffff1602179055508173ffffffffffffffffffffffffffffffffffffffff168173ffffffffffffffffffffffffffffffffffffffff167f8be0079c531659141344cd1fd0a4f28419497f9722a3daafe3b4186f6b6457e060405160405180910390a35050565b600033905090565b6000604051905090565b600080fd5b600080fd5b600073ffffffffffffffffffffffffffffffffffffffff82169050919050565b60006110aa8261107f565b9050919050565b6110ba8161109f565b81146110c557600080fd5b50565b6000813590506110d7816110b1565b92915050565b6000602082840312156110f3576110f2611075565b5b6000611101848285016110c8565b91505092915050565b600081519050919050565b600082825260208201905092915050565b6000819050602082019050919050565b6000819050919050565b61114981611136565b82525050565b600061115b8383611140565b60208301905092915050565b6000602082019050919050565b600061117f8261110a565b6111898185611115565b935061119483611126565b8060005b838110156111c55781516111ac888261114f565b97506111b783611167565b925050600181019050611198565b5085935050505092915050565b600060208201905081810360008301526111ec8184611174565b905092915050565b6111fd81611136565b82525050565b600060208201905061121860008301846111f4565b92915050565b61122781611136565b811461123257600080fd5b50565b6000813590506112448161121e565b92915050565b6000602082840312156112605761125f611075565b5b600061126e84828501611235565b91505092915050565b6000806040838503121561128e5761128d611075565b5b600061129c858286016110c8565b92505060206112ad85828601611235565b9150509250929050565b6112c08161109f565b82525050565b60006020820190506112db60008301846112b7565b92915050565b600081519050919050565b600082825260208201905092915050565b60005b8381101561131b578082015181840152602081019050611300565b60008484015250505050565b6000601f19601f8301169050919050565b6000611343826112e1565b61134d81856112ec565b935061135d8185602086016112fd565b61136681611327565b840191505092915050565b60008115159050919050565b61138681611371565b82525050565b6000610120820190506113a2600083018c6111f4565b6113af602083018b6112b7565b6113bc604083018a6112b7565b6113c960608301896111f4565b6113d660808301886111f4565b81810360a08301526113e88187611338565b90506113f760c083018661137d565b61140460e083018561137d565b6114126101008301846111f4565b9a9950505050505050505050565b600080fd5b600080fd5b7f4e487b7100000000000000000000000000000000000000000000000000000000600052604160045260246000fd5b61146282611327565b810181811067ffffffffffffffff821117156114815761148061142a565b5b80604052505050565b600061149461106b565b90506114a08282611459565b919050565b600067ffffffffffffffff8211156114c0576114bf61142a565b5b6114c982611327565b9050602081019050919050565b82818337600083830152505050565b60006114f86114f3846114a5565b61148a565b90508281526020810184848401111561151457611513611425565b5b61151f8482856114d6565b509392505050565b600082601f83011261153c5761153b611420565b5b813561154c8482602086016114e5565b91505092915050565b600080600080600060a0868803121561157157611570611075565b5b600061157f88828901611235565b9550506020611590888289016110c8565b94505060406115a188828901611235565b93505060606115b288828901611235565b925050608086013567ffffffffffffffff8111156115d3576115d261107a565b5b6115df88828901611527565b9150509295509295909350565b7f4f6e6c792063726561746f722063616e20706179000000000000000000000000600082015250565b60006116226014836112ec565b915061162d826115ec565b602082019050919050565b6000602082019050818103600083015261165181611615565b9050919050565b7f4e6f742061636365707465642079657400000000000000000000000000000000600082015250565b600061168e6010836112ec565b915061169982611658565b602082019050919050565b600060208201905081810360008301526116bd81611681565b9050919050565b7f416c726561647920706169640000000000000000000000000000000000000000600082015250565b60006116fa600c836112ec565b9150611705826116c4565b602082019050919050565b60006020820190508181036000830152611729816116ed565b9050919050565b7f496e636f727265637420616d6f756e7400000000000000000000000000000000600082015250565b60006117666010836112ec565b915061177182611730565b602082019050919050565b6000602082019050818103600083015261179581611759565b9050919050565b7f4e487b7100000000000000000000000000000000000000000000000000000000600052601160045260246000fd5b60006117d682611136565b91506117e183611136565b92508282026117ef81611136565b915082820484148315176118065761180561179c565b5b5092915050565b7f4e487b7100000000000000000000000000000000000000000000000000000000600052601260045260246000fd5b600061184782611136565b915061185283611136565b9250826118625761186161180d565b5b828204905092915050565b600061187882611136565b915061188383611136565b925082820390508181111561189b5761189a61179c565b5b92915050565b7f4e487b7100000000000000000000000000000000000000000000000000000000600052602260045260246000fd5b600060028204905060018216806118e857607f821691505b6020821081036118fb576118fa6118a1565b5b50919050565b7f4f6e6c792070726f64756365722063616e206163636570740000000000000000600082015250565b60006119376018836112ec565b915061194282611901565b602082019050919050565b600060208201905081810360008301526119668161192a565b9050919050565b7f416c726561647920616363657074656400000000000000000000000000000000600082015250565b60006119a36010836112ec565b91506119ae8261196d565b602082019050919050565b600060208201905081810360008301526119d281611996565b9050919050565b7f4d6178203435252063726561746f7220726f79616c7479000000000000000000600082015250565b6000611a0f6017836112ec565b9150611a1a826119d9565b602082019050919050565b60006020820190508181036000830152611a3e81611a02565b9050919050565b7f5072696365206d757374206265203e2030000000000000000000000000000000600082015250565b6000611a7b6011836112ec565b9150611a8682611a45565b602082019050919050565b60006020820190508181036000830152611aaa81611a6e565b9050919050565b6000611abc82611136565b91507fffffffffffffffffffffffffffffffffffffffffffffffffffffffffffffffff8203611aee57611aed61179c565b5b600182019050919050565b60008190508160005260206000209050919050565b60006020601f8301049050919050565b600082821b905092915050565b600060088302611b5b7fffffffffffffffffffffffffffffffffffffffffffffffffffffffffffffffff82611b1e565b611b658683611b1e565b95508019841693508086168417925050509392505050565b6000819050919050565b6000611ba2611b9d611b9884611136565b611b7d565b611136565b9050919050565b6000819050919050565b611bbc83611b87565b611bd0611bc882611ba9565b848454611b2b565b825550505050565b600090565b611be5611bd8565b611bf0818484611bb3565b505050565b5b81811015611c1457611c09600082611bdd565b600181019050611bf6565b5050565b601f821115611c5957611c2a81611af9565b611c3384611b0e565b81016020851015611c42578190505b611c56611c4e85611b0e565b830182611bf5565b50505b505050565b600082821c905092915050565b6000611c7c60001984600802611c5e565b1980831691505092915050565b6000611c958383611c6b565b9150826002028217905092915050565b611cae826112e1565b67ffffffffffffffff811115611cc757611cc661142a565b5b611cd182546118d0565b611cdc828285611c18565b600060209050601f831160018114611d0f5760008415611cfd578287015190505b611d078582611c89565b865550611d6f565b601f198416611d1d86611af9565b60005b82811015611d4557848901518255600182019150602085019450602081019050611d20565b86831015611d625784890151611d5e601f891682611c6b565b8355505b6001600288020188555050505b505050505050565b6000606082019050611d8c60008301866112b7565b611d9960208301856111f4565b611da660408301846111f4565b94935050505056fea264697066735822122082c9618c1d7e0c320b7568b519f9b91bea9a72c181c6869b39c8b2f258a8ebda64736f6c63430008180033",
  "linkReferences": {},
  "deployedLinkReferences": {}
}