{
  "_format": "hh-sol-artifact-1",
  "contractName": "BeatNFT",
  "sourceName": "contracts/BeatNFT.sol",
  "abi": [
    {
      "inputs": [
        {
          "internalType": "address",
          "name": "initialOwner",
          "type": "address"
        },
        {
          "internalType": "address",
          "name": "_platformFeeRecipient",
          "type": "address"
        }
      ],
      "stateMutability": "nonpayable",
      "type": "constructor"
    },
    {
      "inputs": [
        {
          "internalType": "address",
          "name": "sender",
          "type": "address"
        },
        {
          "internalType": "uint256",
          "name": "tokenId",
          "type": "uint256"
        },
        {
          "internalType": "address",
          "name": "owner",
          "type": "address"
        }
      ],
      "name": "ERC721IncorrectOwner",
      "type": "error"
    },
    {
      "inputs": [
        {
          "internalType": "address",
          "name": "operator",
          "type": "address"
        },
        {
          "internalType": "uint256",
          "name": "tokenId",
          "type": "uint256"
        }
      ],
      "name": "ERC721InsufficientApproval",
      "type": "error"
    },
    {
      "inputs": [
        {
          "internalType": "address",
          "name": "approver",
          "type": "address"
        }
      ],
      "name": "ERC721InvalidApprover",
      "type": "error"
    },
    {
      "inputs": [
        {
          "internalType": "address",
          "name": "operator",
          "type": "address"
        }
      ],
      "name": "ERC721InvalidOperator",
      "type": "error"
    },
    {
      "inputs": [
        {
          "internalType": "address",
          "name": "owner",
          "type": "address"
        }
      ],
      "name": "ERC721InvalidOwner",
      "type": "error"
    },
    {
      "inputs": [
        {
          "internalType": "address",
          "name": "receiver",
          "type": "address"
        }
      ],
      "name": "ERC721InvalidReceiver",
      "type": "error"
    },
    {
      "inputs": [
        {
          "internalType": "address",
          "name": "sender",
          "type": "address"
        }
      ],
      "name": "ERC721InvalidSender",
      "type": "error"
    },
    {
      "inputs": [
        {
          "internalType": "uint256",
          "name": "tokenId",
          "type": "uint256"
        }
      ],
      "name": "ERC721NonexistentToken",
      "type": "error"
    },
    {
      "inputs": [
        {
          "internalType": "address",
          "name": "owner",
          "type": "address"
        }
      ],
      "name": "OwnableInvalidOwner",
      "type": "error"
    },
    {
      "inputs": [
        {
          "internalType": "address",
          "name": "account",
          "type": "address"
        }
      ],
      "name": "OwnableUnauthorizedAccount",
      "type": "error"
    },
    {
      "inputs": [],
      "name": "ReentrancyGuardReentrantCall",
      "type": "error"
    },
    {
      "anonymous": false,
      "inputs": [
        {
          "indexed": true,
          "internalType": "address",
          "name": "owner",
          "type": "address"
        },
        {
          "indexed": true,
          "internalType": "address",
          "name": "approved",
          "type": "address"
        },
        {
          "indexed": true,
          "internalType": "uint256",
          "name": "tokenId",
          "type": "uint256"
        }
      ],
      "name": "Approval",
      "type": "event"
    },
    {
      "anonymous": false,
      "inputs": [
        {
          "indexed": true,
          "internalType": "address",
          "name": "owner",
          "type": "address"
        },
        {
          "indexed": true,
          "internalType": "address",
          "name": "operator",
          "type": "address"
        },
        {
          "indexed": false,
          "internalType": "bool",
          "name": "approved",
          "type": "bool"
        }
      ],
      "name": "ApprovalForAll",
      "type": "event"
    },
    {
      "anonymous": false,
      "inputs": [
        {
          "indexed": false,
          "internalType": "uint256",
          "name": "_fromTokenId",
          "type": "uint256"
        },
        {
          "indexed": false,
          "internalType": "uint256",
          "name": "_toTokenId",
          "type": "uint256"
        }
      ],
      "name": "BatchMetadataUpdate",
      "type": "event"
    },
    {
      "anonymous": false,
      "inputs": [
        {
          "indexed": true,
          "internalType": "uint256",
          "name": "tokenId",
          "type": "uint256"
        },
        {
          "indexed": true,
          "internalType": "address",
          "name": "producer",
          "type": "address"
        },
        {
          "indexed": false,
          "internalType": "uint256",
          "name": "price",
          "type": "uint256"
        }
      ],
      "name": "BeatMinted",
      "type": "event"
    },
    {
      "anonymous": false,
      "inputs": [
        {
          "indexed": true,
          "internalType": "uint256",
          "name": "tokenId",
          "type": "uint256"
        },
        {
          "indexed": true,
          "internalType": "address",
          "name": "buyer",
          "type": "address"
        },
        {
          "indexed": false,
          "internalType": "uint256",
          "name": "price",
          "type": "uint256"
        }
      ],
      "name": "BeatSold",
      "type": "event"
    },
    {
      "anonymous": false,
      "inputs": [
        {
          "indexed": false,
          "internalType": "uint256",
          "name": "_tokenId",
          "type": "uint256"
        }
      ],
      "name": "MetadataUpdate",
      "type": "event"
    },
    {
      "anonymous": false,
      "inputs": [
        {
          "indexed": true,
          "internalType": "address",
          "name": "previousOwner",
          "type": "address"
        },
        {
          "indexed": true,
          "internalType": "address",
          "name": "newOwner",
          "type": "address"
        }
      ],
      "name": "OwnershipTransferred",
      "type": "event"
    },
    {
      "anonymous": false,
      "inputs": [
        {
          "indexed": true,
          "internalType": "uint256",
          "name": "tokenId",
          "type": "uint256"
        },
        {
          "indexed": true,
          "internalType": "address",
          "name": "recipient",
          "type": "address"
        },
        {
          "indexed": false,
          "internalType": "uint256",
          "name": "amount",
          "type": "uint256"
        }
      ],
      "name": "RoyaltyPaid",
      "type": "event"
    },
    {
      "anonymous": false,
      "inputs": [
        {
          "indexed": true,
          "internalType": "address",
          "name": "from",
          "type": "address"
        },
        {
          "indexed": true,
          "internalType": "address",
          "name": "to",
          "type": "address"
        },
        {
          "indexed": true,
          "internalType": "uint256",
          "name": "tokenId",
          "type": "uint256"
        }
      ],
      "name": "Transfer",
      "type": "event"
    },
    {
      "inputs": [
        {
          "internalType": "address",
          "name": "to",
          "type": "address"
        },
        {
          "internalType": "uint256",
          "name": "tokenId",
          "type": "uint256"
        }
      ],
      "name": "approve",
      "outputs": [],
      "stateMutability": "nonpayable",
      "type": "function"
    },
    {
      "inputs": [
        {
          "internalType": "address",
          "name": "owner",
          "type": "address"
        }
      ],
      "name": "balanceOf",
      "outputs": [
        {
          "internalType": "uint256",
          "name": "",
          "type": "uint256"
        }
      ],
      "stateMutability": "view",
      "type": "function"
    },
    {
      "inputs": [
        {
          "internalType": "uint256",
          "name": "",
          "type": "uint256"
        }
      ],
      "name": "beats",
      "outputs": [
        {
          "internalType": "uint256",
          "name": "price",
          "type": "uint256"
        },
        {
          "internalType": "address",
          "name": "producer",
          "type": "address"
        },
        {
          "internalType": "uint256",
          "name": "royaltyPercentage",
          "type": "uint256"
        },
        {
          "internalType": "bool",
          "name": "isForSale",
          "type": "bool"
        },
        {
          "internalType": "string",
          "name": "genre",
          "type": "string"
        },
        {
          "internalType": "uint256",
          "name": "bpm",
          "type": "uint256"
        },
        {
          "internalType": "string",
          "name": "musicalKey",
          "type": "string"
        }
      ],
      "stateMutability": "view",
      "type": "function"
    },
    {
      "inputs": [
        {
          "internalType": "uint256",
          "name": "tokenId",
          "type": "uint256"
        }
      ],
      "name": "buyBeat",
      "outputs": [],
      "stateMutability": "payable",
      "type": "function"
    },
    {
      "inputs": [
        {
          "internalType": "uint256",
          "name": "tokenId",
          "type": "uint256"
        }
      ],
      "name": "getApproved",
      "outputs": [
        {
          "internalType": "address",
          "name": "",
          "type": "address"
        }
      ],
      "stateMutability": "view",
      "type": "function"
    },
    {
      "inputs": [
        {
          "internalType": "address",
          "name": "owner",
          "type": "address"
        },
        {
          "internalType": "address",
          "name": "operator",
          "type": "address"
        }
      ],
      "name": "isApprovedForAll",
      "outputs": [
        {
          "internalType": "bool",
          "name": "",
          "type": "bool"
        }
      ],
      "stateMutability": "view",
      "type": "function"
    },
    {
      "inputs": [
        {
          "internalType": "address",
          "name": "to",
          "type": "address"
        },
        {
          "internalType": "string",
          "name": "uri",
          "type": "string"
        },
        {
          "internalType": "uint256",
          "name": "price",
          "type": "uint256"
        },
        {
          "internalType": "uint256",
          "name": "royaltyPercentage",
          "type": "uint256"
        },
        {
          "internalType": "string",
          "name": "genre",
          "type": "string"
        },
        {
          "internalType": "uint256",
          "name": "bpm",
          "type": "uint256"
        },
        {
          "internalType": "string",
          "name": "musicalKey",
          "type": "string"
        }
      ],
      "name": "mintBeat",
      "outputs": [
        {
          "internalType": "uint256",
          "name": "",
          "type": "uint256"
        }
      ],
      "stateMutability": "nonpayable",
      "type": "function"
    },
    {
      "inputs": [],
      "name": "name",
      "outputs": [
        {
          "internalType": "string",
          "name": "",
          "type": "string"
        }
      ],
      "stateMutability": "view",
      "type": "function"
    },
    {
      "inputs": [],
      "name": "owner",
      "outputs": [
        {
          "internalType": "address",
          "name": "",
          "type": "address"
        }
      ],
      "stateMutability": "view",
      "type": "function"
    },
    {
      "inputs": [
        {
          "internalType": "uint256",
          "name": "tokenId",
          "type": "uint256"
        }
      ],
      "name": "ownerOf",
      "outputs": [
        {
          "internalType": "address",
          "name": "",
          "type": "address"
        }
      ],
      "stateMutability": "view",
      "type": "function"
    },
    {
      "inputs": [],
      "name": "platformFeePercentage",
      "outputs": [
        {
          "internalType": "uint256",
          "name": "",
          "type": "uint256"
        }
      ],
      "stateMutability": "view",
      "type": "function"
    },
    {
      "inputs": [],
      "name": "platformFeeRecipient",
      "outputs": [
        {
          "internalType": "address",
          "name": "",
          "type": "address"
        }
      ],
      "stateMutability": "view",
      "type": "function"
    },
    {
      "inputs": [
        {
          "internalType": "uint256",
          "name": "tokenId",
          "type": "uint256"
        }
      ],
      "name": "removeBeatFromSale",
      "outputs": [],
      "stateMutability": "nonpayable",
      "type": "function"
    },
    {
      "inputs": [],
      "name": "renounceOwnership",
      "outputs": [],
      "stateMutability": "nonpayable",
      "type": "function"
    },
    {
      "inputs": [
        {
          "internalType": "uint256",
          "name": "tokenId",
          "type": "uint256"
        },
        {
          "internalType": "uint256",
          "name": "salePrice",
          "type": "uint256"
        }
      ],
      "name": "royaltyInfo",
      "outputs": [
        {
          "internalType": "address",
          "name": "receiver",
          "type": "address"
        },
        {
          "internalType": "uint256",
          "name": "royaltyAmount",
          "type": "uint256"
        }
      ],
      "stateMutability": "view",
      "type": "function"
    },
    {
      "inputs": [
        {
          "internalType": "address",
          "name": "from",
          "type": "address"
        },
        {
          "internalType": "address",
          "name": "to",
          "type": "address"
        },
        {
          "internalType": "uint256",
          "name": "tokenId",
          "type": "uint256"
        }
      ],
      "name": "safeTransferFrom",
      "outputs": [],
      "stateMutability": "nonpayable",
      "type": "function"
    },
    {
      "inputs": [
        {
          "internalType": "address",
          "name": "from",
          "type": "address"
        },
        {
          "internalType": "address",
          "name": "to",
          "type": "address"
        },
        {
          "internalType": "uint256",
          "name": "tokenId",
          "type": "uint256"
        },
        {
          "internalType": "bytes",
          "name": "data",
          "type": "bytes"
        }
      ],
      "name": "safeTransferFrom",
      "outputs": [],
      "stateMutability": "nonpayable",
      "type": "function"
    },
    {
      "inputs": [
        {
          "internalType": "address",
          "name": "operator",
          "type": "address"
        },
        {
          "internalType": "bool",
          "name": "approved",
          "type": "bool"
        }
      ],
      "name": "setApprovalForAll",
      "outputs": [],
      "stateMutability": "nonpayable",
      "type": "function"
    },
    {
      "inputs": [
        {
          "internalType": "uint256",
          "name": "tokenId",
          "type": "uint256"
        },
        {
          "internalType": "uint256",
          "name": "price",
          "type": "uint256"
        }
      ],
      "name": "setBeatForSale",
      "outputs": [],
      "stateMutability": "nonpayable",
      "type": "function"
    },
    {
      "inputs": [
        {
          "internalType": "uint256",
          "name": "_platformFeePercentage",
          "type": "uint256"
        }
      ],
      "name": "setPlatformFee",
      "outputs": [],
      "stateMutability": "nonpayable",
      "type": "function"
    },
    {
      "inputs": [
        {
          "internalType": "address",
          "name": "_platformFeeRecipient",
          "type": "address"
        }
      ],
      "name": "setPlatformFeeRecipient",
      "outputs": [],
      "stateMutability": "nonpayable",
      "type": "function"
    },
    {
      "inputs": [
        {
          "internalType": "bytes4",
          "name": "interfaceId",
          "type": "bytes4"
        }
      ],
      "name": "supportsInterface",
      "outputs": [
        {
          "internalType": "bool",
          "name": "",
          "type": "bool"
        }
      ],
      "stateMutability": "view",
      "type": "function"
    },
    {
      "inputs": [],
      "name": "symbol",
      "outputs": [
        {
          "internalType": "string",
          "name": "",
          "type": "string"
        }
      ],
      "stateMutability": "view",
      "type": "function"
    },
    {
      "inputs": [
        {
          "internalType": "uint256",
          "name": "tokenId",
          "type": "uint256"
        }
      ],
      "name": "tokenURI",
      "outputs": [
        {
          "internalType": "string",
          "name": "",
          "type": "string"
        }
      ],
      "stateMutability": "view",
      "type": "function"
    },
    {
      "inputs": [
        {
          "internalType": "address",
          "name": "from",
          "type": "address"
        },
        {
          "internalType": "address",
          "name": "to",
          "type": "address"
        },
        {
          "internalType": "uint256",
          "name": "tokenId",
          "type": "uint256"
        }
      ],
      "name": "transferFrom",
      "outputs": [],
      "stateMutability": "nonpayable",
      "type": "function"
    },
    {
      "inputs": [
        {
          "internalType": "address",
          "name": "newOwner",
          "type": "address"
        }
      ],
      "name": "transferOwnership",
      "outputs": [],
      "stateMutability": "nonpayable",
      "type": "function"
    },
    {
      "inputs": [
        {
          "internalType": "address",
          "name": "",
          "type": "address"
        }
      ],
      "name": "verifiedProducers",
      "outputs": [
        {
          "internalType": "bool",
          "name": "",
          "type": "bool"
        }
      ],
      "stateMutability": "view",
      "type": "function"
    },
    {
      "inputs": [
        {
          "internalType": "address",
          "name": "producer",
          "type": "address"
        }
      ],
      "name": "verifyProducer",
      "outputs": [],
      "stateMutability": "nonpayable",
      "type": "function"
    }
  ],
  "bytecode": "0x60806040526105dc600a553480156200001757600080fd5b50604051620043523803806200435283398181016040528101906200003d9190620002d8565b816040518060400160405280600781526020017f426561744e4654000000000000000000000000000000000000000000000000008152506040518060400160405280600781526020017f424541544e4654000000000000000000000000000000000000000000000000008152508160009081620000bb919062000599565b508060019081620000cd919062000599565b505050600073ffffffffffffffffffffffffffffffffffffffff168173ffffffffffffffffffffffffffffffffffffffff1603620001455760006040517f1e4fbdf70000000000000000000000000000000000000000000000000000000081526004016200013c919062000691565b60405180910390fd5b6200015681620001a860201b60201c565b50600160088190555080600b60006101000a81548173ffffffffffffffffffffffffffffffffffffffff021916908373ffffffffffffffffffffffffffffffffffffffff1602179055505050620006ae565b6000600760009054906101000a900473ffffffffffffffffffffffffffffffffffffffff16905081600760006101000a81548173ffffffffffffffffffffffffffffffffffffffff021916908373ffffffffffffffffffffffffffffffffffffffff1602179055508173ffffffffffffffffffffffffffffffffffffffff168173ffffffffffffffffffffffffffffffffffffffff167f8be0079c531659141344cd1fd0a4f28419497f9722a3daafe3b4186f6b6457e060405160405180910390a35050565b600080fd5b600073ffffffffffffffffffffffffffffffffffffffff82169050919050565b6000620002a08262000273565b9050919050565b620002b28162000293565b8114620002be57600080fd5b50565b600081519050620002d281620002a7565b92915050565b60008060408385031215620002f257620002f16200026e565b5b60006200030285828601620002c1565b92505060206200031585828601620002c1565b9150509250929050565b600081519050919050565b7f4e487b7100000000000000000000000000000000000000000000000000000000600052604160045260246000fd5b7f4e487b7100000000000000000000000000000000000000000000000000000000600052602260045260246000fd5b60006002820490506001821680620003a157607f821691505b602082108103620003b757620003b662000359565b5b50919050565b60008190508160005260206000209050919050565b60006020601f8301049050919050565b600082821b905092915050565b600060088302620004217fffffffffffffffffffffffffffffffffffffffffffffffffffffffffffffffff82620003e2565b6200042d8683620003e2565b95508019841693508086168417925050509392505050565b6000819050919050565b6000819050919050565b60006200047a620004746200046e8462000445565b6200044f565b62000445565b9050919050565b6000819050919050565b620004968362000459565b620004ae620004a58262000481565b848454620003ef565b825550505050565b600090565b620004c5620004b6565b620004d28184846200048b565b505050565b5b81811015620004fa57620004ee600082620004bb565b600181019050620004d8565b5050565b601f82111562000549576200051381620003bd565b6200051e84620003d2565b810160208510156200052e578190505b620005466200053d85620003d2565b830182620004d7565b50505b505050565b600082821c905092915050565b60006200056e600019846008026200054e565b1980831691505092915050565b60006200058983836200055b565b9150826002028217905092915050565b620005a4826200031f565b67ffffffffffffffff811115620005c057620005bf6200032a565b5b620005cc825462000388565b620005d9828285620004fe565b600060209050601f831160018114620006115760008415620005fc578287015190505b6200060885826200057b565b86555062000678565b601f1984166200062186620003bd565b60005b828110156200064b5784890151825560018201915060208501945060208101905062000624565b868310156200066b578489015162000667601f8916826200055b565b8355505b6001600288020188555050505b505050505050565b6200068b8162000293565b82525050565b6000602082019050620006a8600083018462000680565b92915050565b613c9480620006be6000396000f3fe6080604052600436106101b75760003560e01c806370a08231116100ec578063c007947b1161008a578063e155d6f611610064578063e155d6f614610624578063e985e9c514610661578063eb13554f1461069e578063f2fde38b146106c9576101b7565b8063c007947b14610593578063c87b56dd146105bc578063cdd78cfc146105f9576101b7565b806395d89b41116100c657806395d89b41146104fa578063a204c3e014610525578063a22cb46514610541578063b88d4fde1461056a576101b7565b806370a082311461047b578063715018a6146104b85780638da5cb5b146104cf576101b7565b80632a55205a116101595780636352211e116101335780636352211e1461039557806364fa9cc7146103d257806366bcd88f146103fb5780636d08c1eb1461043e576101b7565b80632a55205a1461030557806331bd3f361461034357806342842e0e1461036c576101b7565b8063095ea7b311610195578063095ea7b31461026157806312e8e2c31461028a5780631871e243146102b357806323b872dd146102dc576101b7565b806301ffc9a7146101bc57806306fdde03146101f9578063081812fc14610224575b600080fd5b3480156101c857600080fd5b506101e360048036038101906101de9190612c66565b6106f2565b6040516101f09190612cae565b60405180910390f35b34801561020557600080fd5b5061020e61076c565b60405161021b9190612d59565b60405180910390f35b34801561023057600080fd5b5061024b60048036038101906102469190612db1565b6107fe565b6040516102589190612e1f565b60405180910390f35b34801561026d57600080fd5b5061028860048036038101906102839190612e66565b61081a565b005b34801561029657600080fd5b506102b160048036038101906102ac9190612db1565b610830565b005b3480156102bf57600080fd5b506102da60048036038101906102d59190612ea6565b610887565b005b3480156102e857600080fd5b5061030360048036038101906102fe9190612ed3565b6108d3565b005b34801561031157600080fd5b5061032c60048036038101906103279190612f26565b6109d5565b60405161033a929190612f75565b60405180910390f35b34801561034f57600080fd5b5061036a60048036038101906103659190612db1565b610ac0565b005b34801561037857600080fd5b50610393600480360381019061038e9190612ed3565b610b68565b005b3480156103a157600080fd5b506103bc60048036038101906103b79190612db1565b610b88565b6040516103c99190612e1f565b60405180910390f35b3480156103de57600080fd5b506103f960048036038101906103f49190612f26565b610b9a565b005b34801561040757600080fd5b50610422600480360381019061041d9190612db1565b610c5e565b6040516104359796959493929190612f9e565b60405180910390f35b34801561044a57600080fd5b5061046560048036038101906104609190613150565b610ddd565b6040516104729190613246565b60405180910390f35b34801561048757600080fd5b506104a2600480360381019061049d9190612ea6565b610fc4565b6040516104af9190613246565b60405180910390f35b3480156104c457600080fd5b506104cd61107e565b005b3480156104db57600080fd5b506104e4611092565b6040516104f19190612e1f565b60405180910390f35b34801561050657600080fd5b5061050f6110bc565b60405161051c9190612d59565b60405180910390f35b61053f600480360381019061053a9190612db1565b61114e565b005b34801561054d57600080fd5b506105686004803603810190610563919061328d565b611642565b005b34801561057657600080fd5b50610591600480360381019061058c919061336e565b611658565b005b34801561059f57600080fd5b506105ba60048036038101906105b59190612ea6565b61167d565b005b3480156105c857600080fd5b506105e360048036038101906105de9190612db1565b6116e0565b6040516105f09190612d59565b60405180910390f35b34801561060557600080fd5b5061060e6116f2565b60405161061b9190613246565b60405180910390f35b34801561063057600080fd5b5061064b60048036038101906106469190612ea6565b6116f8565b6040516106589190612cae565b60405180910390f35b34801561066d57600080fd5b50610688600480360381019061068391906133f1565b611718565b6040516106959190612cae565b60405180910390f35b3480156106aa57600080fd5b506106b36117ac565b6040516106c09190612e1f565b60405180910390f35b3480156106d557600080fd5b506106f060048036038101906106eb9190612ea6565b6117d2565b005b60007f2a55205a000000000000000000000000000000000000000000000000000000007bffffffffffffffffffffffffffffffffffffffffffffffffffffffff1916827bffffffffffffffffffffffffffffffffffffffffffffffffffffffff19161480610765575061076482611858565b5b9050919050565b60606000805461077b90613460565b80601f01602080910402602001604051908101604052809291908181526020018280546107a790613460565b80156107f45780601f106107c9576101008083540402835291602001916107f4565b820191906000526020600020905b8154815290600101906020018083116107d757829003601f168201915b5050505050905090565b6000610809826118b9565b5061081382611941565b9050919050565b61082c828261082761197e565b611986565b5050565b610838611998565b6105dc81111561087d576040517f08c379a0000000000000000000000000000000000000000000000000000000008152600401610874906134dd565b60405180910390fd5b80600a8190555050565b61088f611998565b80600b60006101000a81548173ffffffffffffffffffffffffffffffffffffffff021916908373ffffffffffffffffffffffffffffffffffffffff16021790555050565b600073ffffffffffffffffffffffffffffffffffffffff168273ffffffffffffffffffffffffffffffffffffffff16036109455760006040517f64a0ae9200000000000000000000000000000000000000000000000000000000815260040161093c9190612e1f565b60405180910390fd5b6000610959838361095461197e565b611a1f565b90508373ffffffffffffffffffffffffffffffffffffffff168173ffffffffffffffffffffffffffffffffffffffff16146109cf578382826040517f64283d7b0000000000000000000000000000000000000000000000000000000081526004016109c6939291906134fd565b60405180910390fd5b50505050565b600080600073ffffffffffffffffffffffffffffffffffffffff166109f985611c39565b73ffffffffffffffffffffffffffffffffffffffff1603610a4f576040517f08c379a0000000000000000000000000000000000000000000000000000000008152600401610a4690613580565b60405180910390fd5b600c600085815260200190815260200160002060010160009054906101000a900473ffffffffffffffffffffffffffffffffffffffff169150612710600c60008681526020019081526020016000206002015484610aad91906135cf565b610ab79190613640565b90509250929050565b3373ffffffffffffffffffffffffffffffffffffffff16610ae082610b88565b73ffffffffffffffffffffffffffffffffffffffff1614610b36576040517f08c379a0000000000000000000000000000000000000000000000000000000008152600401610b2d906136bd565b60405180910390fd5b6000600c600083815260200190815260200160002060030160006101000a81548160ff02191690831515021790555050565b610b8383838360405180602001604052806000815250611658565b505050565b6000610b93826118b9565b9050919050565b3373ffffffffffffffffffffffffffffffffffffffff16610bba83610b88565b73ffffffffffffffffffffffffffffffffffffffff1614610c10576040517f08c379a0000000000000000000000000000000000000000000000000000000008152600401610c07906136bd565b60405180910390fd5b80600c6000848152602001908152602001600020600001819055506001600c600084815260200190815260200160002060030160006101000a81548160ff0219169083151502179055505050565b600c6020528060005260406000206000915090508060000154908060010160009054906101000a900473ffffffffffffffffffffffffffffffffffffffff16908060020154908060030160009054906101000a900460ff1690806004018054610cc690613460565b80601f0160208091040260200160405190810160405280929190818152602001828054610cf290613460565b8015610d3f5780601f10610d1457610100808354040283529160200191610d3f565b820191906000526020600020905b815481529060010190602001808311610d2257829003601f168201915b505050505090806005015490806006018054610d5a90613460565b80601f0160208091040260200160405190810160405280929190818152602001828054610d8690613460565b8015610dd35780601f10610da857610100808354040283529160200191610dd3565b820191906000526020600020905b815481529060010190602001808311610db657829003601f168201915b5050505050905087565b60006103e8851115610e24576040517f08c379a0000000000000000000000000000000000000000000000000000000008152600401610e1b90613729565b60405180910390fd5b600060096000815480929190610e3990613749565b919050559050610e498982611c76565b610e538189611c94565b6040518060e001604052808881526020018a73ffffffffffffffffffffffffffffffffffffffff16815260200187815260200160011515815260200186815260200185815260200184815250600c60008381526020019081526020016000206000820151816000015560208201518160010160006101000a81548173ffffffffffffffffffffffffffffffffffffffff021916908373ffffffffffffffffffffffffffffffffffffffff1602179055506040820151816002015560608201518160030160006101000a81548160ff0219169083151502179055506080820151816004019081610f42919061393d565b5060a0820151816005015560c0820151816006019081610f62919061393d565b509050508873ffffffffffffffffffffffffffffffffffffffff16817f926a55c8b4b167bc8e0bfb8c073529112fcee725b98701403c7d5ac7764656e389604051610fad9190613246565b60405180910390a380915050979650505050505050565b60008073ffffffffffffffffffffffffffffffffffffffff168273ffffffffffffffffffffffffffffffffffffffff16036110375760006040517f89c62b6400000000000000000000000000000000000000000000000000000000815260040161102e9190612e1f565b60405180910390fd5b600360008373ffffffffffffffffffffffffffffffffffffffff1673ffffffffffffffffffffffffffffffffffffffff168152602001908152602001600020549050919050565b611086611998565b6110906000611cf0565b565b6000600760009054906101000a900473ffffffffffffffffffffffffffffffffffffffff16905090565b6060600180546110cb90613460565b80601f01602080910402602001604051908101604052809291908181526020018280546110f790613460565b80156111445780601f1061111957610100808354040283529160200191611144565b820191906000526020600020905b81548152906001019060200180831161112757829003601f168201915b5050505050905090565b611156611db6565b600073ffffffffffffffffffffffffffffffffffffffff1661117782611c39565b73ffffffffffffffffffffffffffffffffffffffff16036111cd576040517f08c379a00000000000000000000000000000000000000000000000000000000081526004016111c490613580565b60405180910390fd5b600c600082815260200190815260200160002060030160009054906101000a900460ff16611230576040517f08c379a000000000000000000000000000000000000000000000000000000000815260040161122790613a5b565b60405180910390fd5b600c600082815260200190815260200160002060000154341015611289576040517f08c379a000000000000000000000000000000000000000000000000000000000815260040161128090613ac7565b60405180910390fd5b600061129482610b88565b90506000600c60008481526020019081526020016000206000015490506000612710600a54836112c491906135cf565b6112ce9190613640565b90506000600c600086815260200190815260200160002060010160009054906101000a900473ffffffffffffffffffffffffffffffffffffffff1673ffffffffffffffffffffffffffffffffffffffff168473ffffffffffffffffffffffffffffffffffffffff161461147957612710600c6000878152602001908152602001600020600201548461136091906135cf565b61136a9190613640565b9050600081111561147857600c600086815260200190815260200160002060010160009054906101000a900473ffffffffffffffffffffffffffffffffffffffff1673ffffffffffffffffffffffffffffffffffffffff166108fc829081150290604051600060405180830381858888f193505050501580156113f1573d6000803e3d6000fd5b50600c600086815260200190815260200160002060010160009054906101000a900473ffffffffffffffffffffffffffffffffffffffff1673ffffffffffffffffffffffffffffffffffffffff16857ff670029fc6f5302baba881b4ae845d1453acdf752b4c19ed81fe0fa6a686409b8360405161146f9190613246565b60405180910390a35b5b60008211156114ec57600b60009054906101000a900473ffffffffffffffffffffffffffffffffffffffff1673ffffffffffffffffffffffffffffffffffffffff166108fc839081150290604051600060405180830381858888f193505050501580156114ea573d6000803e3d6000fd5b505b60008183856114fb9190613ae7565b6115059190613ae7565b90508473ffffffffffffffffffffffffffffffffffffffff166108fc829081150290604051600060405180830381858888f1935050505015801561154d573d6000803e3d6000fd5b50611559853388611dfc565b6000600c600088815260200190815260200160002060030160006101000a81548160ff021916908315150217905550833411156115e3573373ffffffffffffffffffffffffffffffffffffffff166108fc85346115b69190613ae7565b9081150290604051600060405180830381858888f193505050501580156115e1573d6000803e3d6000fd5b505b3373ffffffffffffffffffffffffffffffffffffffff16867fed415b6fb3ac2f9049821fed0c73143955636fdb5250eed2b3ebd11a1489514b8660405161162a9190613246565b60405180910390a3505050505061163f611f69565b50565b61165461164d61197e565b8383611f73565b5050565b6116638484846108d3565b61167761166e61197e565b858585856120e2565b50505050565b611685611998565b6001600d60008373ffffffffffffffffffffffffffffffffffffffff1673ffffffffffffffffffffffffffffffffffffffff16815260200190815260200160002060006101000a81548160ff02191690831515021790555050565b60606116eb82612293565b9050919050565b600a5481565b600d6020528060005260406000206000915054906101000a900460ff1681565b6000600560008473ffffffffffffffffffffffffffffffffffffffff1673ffffffffffffffffffffffffffffffffffffffff16815260200190815260200160002060008373ffffffffffffffffffffffffffffffffffffffff1673ffffffffffffffffffffffffffffffffffffffff16815260200190815260200160002060009054906101000a900460ff16905092915050565b600b60009054906101000a900473ffffffffffffffffffffffffffffffffffffffff1681565b6117da611998565b600073ffffffffffffffffffffffffffffffffffffffff168173ffffffffffffffffffffffffffffffffffffffff160361184c5760006040517f1e4fbdf70000000000000000000000000000000000000000000000000000000081526004016118439190612e1f565b60405180910390fd5b61185581611cf0565b50565b6000634906490660e01b7bffffffffffffffffffffffffffffffffffffffffffffffffffffffff1916827bffffffffffffffffffffffffffffffffffffffffffffffffffffffff191614806118b257506118b1826123a6565b5b9050919050565b6000806118c583611c39565b9050600073ffffffffffffffffffffffffffffffffffffffff168173ffffffffffffffffffffffffffffffffffffffff160361193857826040517f7e27328900000000000000000000000000000000000000000000000000000000815260040161192f9190613246565b60405180910390fd5b80915050919050565b60006004600083815260200190815260200160002060009054906101000a900473ffffffffffffffffffffffffffffffffffffffff169050919050565b600033905090565b6119938383836001612488565b505050565b6119a061197e565b73ffffffffffffffffffffffffffffffffffffffff166119be611092565b73ffffffffffffffffffffffffffffffffffffffff1614611a1d576119e161197e565b6040517f118cdaa7000000000000000000000000000000000000000000000000000000008152600401611a149190612e1f565b60405180910390fd5b565b600080611a2b84611c39565b9050600073ffffffffffffffffffffffffffffffffffffffff168373ffffffffffffffffffffffffffffffffffffffff1614611a6d57611a6c81848661264d565b5b600073ffffffffffffffffffffffffffffffffffffffff168173ffffffffffffffffffffffffffffffffffffffff1614611afe57611aaf600085600080612488565b6001600360008373ffffffffffffffffffffffffffffffffffffffff1673ffffffffffffffffffffffffffffffffffffffff168152602001908152602001600020600082825403925050819055505b600073ffffffffffffffffffffffffffffffffffffffff168573ffffffffffffffffffffffffffffffffffffffff1614611b81576001600360008773ffffffffffffffffffffffffffffffffffffffff1673ffffffffffffffffffffffffffffffffffffffff168152602001908152602001600020600082825401925050819055505b846002600086815260200190815260200160002060006101000a81548173ffffffffffffffffffffffffffffffffffffffff021916908373ffffffffffffffffffffffffffffffffffffffff160217905550838573ffffffffffffffffffffffffffffffffffffffff168273ffffffffffffffffffffffffffffffffffffffff167fddf252ad1be2c89b69c2b068fc378daa952ba7f163c4a11628f55a4df523b3ef60405160405180910390a4809150509392505050565b60006002600083815260200190815260200160002060009054906101000a900473ffffffffffffffffffffffffffffffffffffffff169050919050565b611c90828260405180602001604052806000815250612711565b5050565b80600660008481526020019081526020016000209081611cb4919061393d565b507ff8e1a15aba9398e019f0b49df1a4fde98ee17ae345cb5f6b5e2c27f5033e8ce782604051611ce49190613246565b60405180910390a15050565b6000600760009054906101000a900473ffffffffffffffffffffffffffffffffffffffff16905081600760006101000a81548173ffffffffffffffffffffffffffffffffffffffff021916908373ffffffffffffffffffffffffffffffffffffffff1602179055508173ffffffffffffffffffffffffffffffffffffffff168173ffffffffffffffffffffffffffffffffffffffff167f8be0079c531659141344cd1fd0a4f28419497f9722a3daafe3b4186f6b6457e060405160405180910390a35050565b600260085403611df2576040517f3ee5aeb500000000000000000000000000000000000000000000000000000000815260040160405180910390fd5b6002600881905550565b600073ffffffffffffffffffffffffffffffffffffffff168273ffffffffffffffffffffffffffffffffffffffff1603611e6e5760006040517f64a0ae92000000000000000000000000000000000000000000000000000000008152600401611e659190612e1f565b60405180910390fd5b6000611e7c83836000611a1f565b9050600073ffffffffffffffffffffffffffffffffffffffff168173ffffffffffffffffffffffffffffffffffffffff1603611eef57816040517f7e273289000000000000000000000000000000000000000000000000000000008152600401611ee69190613246565b60405180910390fd5b8373ffffffffffffffffffffffffffffffffffffffff168173ffffffffffffffffffffffffffffffffffffffff1614611f63578382826040517f64283d7b000000000000000000000000000000000000000000000000000000008152600401611f5a939291906134fd565b60405180910390fd5b50505050565b6001600881905550565b600073ffffffffffffffffffffffffffffffffffffffff168273ffffffffffffffffffffffffffffffffffffffff1603611fe457816040517f5b08ba18000000000000000000000000000000000000000000000000000000008152600401611fdb9190612e1f565b60405180910390fd5b80600560008573ffffffffffffffffffffffffffffffffffffffff1673ffffffffffffffffffffffffffffffffffffffff16815260200190815260200160002060008473ffffffffffffffffffffffffffffffffffffffff1673ffffffffffffffffffffffffffffffffffffffff16815260200190815260200160002060006101000a81548160ff0219169083151502179055508173ffffffffffffffffffffffffffffffffffffffff168373ffffffffffffffffffffffffffffffffffffffff167f17307eab39ab6107e8899845ad3d59bd9653f200f220920489ca2b5937696c31836040516120d59190612cae565b60405180910390a3505050565b60008373ffffffffffffffffffffffffffffffffffffffff163b111561228c578273ffffffffffffffffffffffffffffffffffffffff1663150b7a02868685856040518563ffffffff1660e01b81526004016121419493929190613b70565b6020604051808303816000875af192505050801561217d57506040513d601f19601f8201168201806040525081019061217a9190613bd1565b60015b612201573d80600081146121ad576040519150601f19603f3d011682016040523d82523d6000602084013e6121b2565b606091505b5060008151036121f957836040517f64a0ae920000000000000000000000000000000000000000000000000000000081526004016121f09190612e1f565b60405180910390fd5b805181602001fd5b63150b7a0260e01b7bffffffffffffffffffffffffffffffffffffffffffffffffffffffff1916817bffffffffffffffffffffffffffffffffffffffffffffffffffffffff19161461228a57836040517f64a0ae920000000000000000000000000000000000000000000000000000000081526004016122819190612e1f565b60405180910390fd5b505b5050505050565b606061229e826118b9565b5060006006600084815260200190815260200160002080546122bf90613460565b80601f01602080910402602001604051908101604052809291908181526020018280546122eb90613460565b80156123385780601f1061230d57610100808354040283529160200191612338565b820191906000526020600020905b81548152906001019060200180831161231b57829003601f168201915b505050505090506000612349612735565b9050600081510361235e5781925050506123a1565b60008251111561239357808260405160200161237b929190613c3a565b604051602081830303815290604052925050506123a1565b61239c8461274c565b925050505b919050565b60007f80ac58cd000000000000000000000000000000000000000000000000000000007bffffffffffffffffffffffffffffffffffffffffffffffffffffffff1916827bffffffffffffffffffffffffffffffffffffffffffffffffffffffff1916148061247157507f5b5e139f000000000000000000000000000000000000000000000000000000007bffffffffffffffffffffffffffffffffffffffffffffffffffffffff1916827bffffffffffffffffffffffffffffffffffffffffffffffffffffffff1916145b806124815750612480826127b5565b5b9050919050565b80806124c15750600073ffffffffffffffffffffffffffffffffffffffff168273ffffffffffffffffffffffffffffffffffffffff1614155b156125f55760006124d1846118b9565b9050600073ffffffffffffffffffffffffffffffffffffffff168373ffffffffffffffffffffffffffffffffffffffff161415801561253c57508273ffffffffffffffffffffffffffffffffffffffff168173ffffffffffffffffffffffffffffffffffffffff1614155b801561254f575061254d8184611718565b155b1561259157826040517fa9fbf51f0000000000000000000000000000000000000000000000000000000081526004016125889190612e1f565b60405180910390fd5b81156125f357838573ffffffffffffffffffffffffffffffffffffffff168273ffffffffffffffffffffffffffffffffffffffff167f8c5be1e5ebec7d5bd14f71427d1e84f3dd0314c0f7b2291e5b200ac8c7c3b92560405160405180910390a45b505b836004600085815260200190815260200160002060006101000a81548173ffffffffffffffffffffffffffffffffffffffff021916908373ffffffffffffffffffffffffffffffffffffffff16021790555050505050565b61265883838361281f565b61270c57600073ffffffffffffffffffffffffffffffffffffffff168373ffffffffffffffffffffffffffffffffffffffff16036126cd57806040517f7e2732890000000000000000000000000000000000000000000000000000000081526004016126c49190613246565b60405180910390fd5b81816040517f177e802f000000000000000000000000000000000000000000000000000000008152600401612703929190612f75565b60405180910390fd5b505050565b61271b83836128e0565b61273061272661197e565b60008585856120e2565b505050565b606060405180602001604052806000815250905090565b6060612757826118b9565b506000612762612735565b9050600081511161278257604051806020016040528060008152506127ad565b8061278c846129d9565b60405160200161279d929190613c3a565b6040516020818303038152906040525b915050919050565b60007f01ffc9a7000000000000000000000000000000000000000000000000000000007bffffffffffffffffffffffffffffffffffffffffffffffffffffffff1916827bffffffffffffffffffffffffffffffffffffffffffffffffffffffff1916149050919050565b60008073ffffffffffffffffffffffffffffffffffffffff168373ffffffffffffffffffffffffffffffffffffffff16141580156128d757508273ffffffffffffffffffffffffffffffffffffffff168473ffffffffffffffffffffffffffffffffffffffff16148061289857506128978484611718565b5b806128d657508273ffffffffffffffffffffffffffffffffffffffff166128be83611941565b73ffffffffffffffffffffffffffffffffffffffff16145b5b90509392505050565b600073ffffffffffffffffffffffffffffffffffffffff168273ffffffffffffffffffffffffffffffffffffffff16036129525760006040517f64a0ae920000000000000000000000000000000000000000000000000000000081526004016129499190612e1f565b60405180910390fd5b600061296083836000611a1f565b9050600073ffffffffffffffffffffffffffffffffffffffff168173ffffffffffffffffffffffffffffffffffffffff16146129d45760006040517f73c6ac6e0000000000000000000000000000000000000000000000000000000081526004016129cb9190612e1f565b60405180910390fd5b505050565b6060600060016129e884612aa7565b01905060008167ffffffffffffffff811115612a0757612a06613025565b5b6040519080825280601f01601f191660200182016040528015612a395781602001600182028036833780820191505090505b509050600082602001820190505b600115612a9c578080600190039150507f3031323334353637383961626364656600000000000000000000000000000000600a86061a8153600a8581612a9057612a8f613611565b5b04945060008503612a47575b819350505050919050565b600080600090507a184f03e93ff9f4daa797ed6e38ed64bf6a1f0100000000000000008310612b05577a184f03e93ff9f4daa797ed6e38ed64bf6a1f0100000000000000008381612afb57612afa613611565b5b0492506040810190505b6d04ee2d6d415b85acef81000000008310612b42576d04ee2d6d415b85acef81000000008381612b3857612b37613611565b5b0492506020810190505b662386f26fc100008310612b7157662386f26fc100008381612b6757612b66613611565b5b0492506010810190505b6305f5e1008310612b9a576305f5e1008381612b9057612b8f613611565b5b0492506008810190505b6127108310612bbf576127108381612bb557612bb4613611565b5b0492506004810190505b60648310612be25760648381612bd857612bd7613611565b5b0492506002810190505b600a8310612bf1576001810190505b80915050919050565b6000604051905090565b600080fd5b600080fd5b60007fffffffff0000000000000000000000000000000000000000000000000000000082169050919050565b612c4381612c0e565b8114612c4e57600080fd5b50565b600081359050612c6081612c3a565b92915050565b600060208284031215612c7c57612c7b612c04565b5b6000612c8a84828501612c51565b91505092915050565b60008115159050919050565b612ca881612c93565b82525050565b6000602082019050612cc36000830184612c9f565b92915050565b600081519050919050565b600082825260208201905092915050565b60005b83811015612d03578082015181840152602081019050612ce8565b60008484015250505050565b6000601f19601f8301169050919050565b6000612d2b82612cc9565b612d358185612cd4565b9350612d45818560208601612ce5565b612d4e81612d0f565b840191505092915050565b60006020820190508181036000830152612d738184612d20565b905092915050565b6000819050919050565b612d8e81612d7b565b8114612d9957600080fd5b50565b600081359050612dab81612d85565b92915050565b600060208284031215612dc757612dc6612c04565b5b6000612dd584828501612d9c565b91505092915050565b600073ffffffffffffffffffffffffffffffffffffffff82169050919050565b6000612e0982612dde565b9050919050565b612e1981612dfe565b82525050565b6000602082019050612e346000830184612e10565b92915050565b612e4381612dfe565b8114612e4e57600080fd5b50565b600081359050612e6081612e3a565b92915050565b60008060408385031215612e7d57612e7c612c04565b5b6000612e8b85828601612e51565b9250506020612e9c85828601612d9c565b9150509250929050565b600060208284031215612ebc57612ebb612c04565b5b6000612eca84828501612e51565b91505092915050565b600080600060608486031215612eec57612eeb612c04565b5b6000612efa86828701612e51565b9350506020612f0b86828701612e51565b9250506040612f1c86828701612d9c565b9150509250925092565b60008060408385031215612f3d57612f3c612c04565b5b6000612f4b85828601612d9c565b9250506020612f5c85828601612d9c565b9150509250929050565b612f6f81612d7b565b82525050565b6000604082019050612f8a6000830185612e10565b612f976020830184612f66565b9392505050565b600060e082019050612fb3600083018a612f66565b612fc06020830189612e10565b612fcd6040830188612f66565b612fda6060830187612c9f565b8181036080830152612fec8186612d20565b9050612ffb60a0830185612f66565b81810360c083015261300d8184612d20565b905098975050505050505050565b600080fd5b600080fd5b7f4e487b7100000000000000000000000000000000000000000000000000000000600052604160045260246000fd5b61305d82612d0f565b810181811067ffffffffffffffff8211171561307c5761307b613025565b5b80604052505050565b600061308f612bfa565b905061309b8282613054565b919050565b600067ffffffffffffffff8211156130bb576130ba613025565b5b6130c482612d0f565b9050602081019050919050565b82818337600083830152505050565b60006130f36130ee846130a0565b613085565b90508281526020810184848401111561310f5761310e613020565b5b61311a8482856130d1565b509392505050565b600082601f8301126131375761313661301b565b5b81356131478482602086016130e0565b91505092915050565b600080600080600080600060e0888a03121561316f5761316e612c04565b5b600061317d8a828b01612e51565b975050602088013567ffffffffffffffff81111561319e5761319d612c09565b5b6131aa8a828b01613122565b96505060406131bb8a828b01612d9c565b95505060606131cc8a828b01612d9c565b945050608088013567ffffffffffffffff8111156131ed576131ec612c09565b5b6131f98a828b01613122565b93505060a061320a8a828b01612d9c565b92505060c088013567ffffffffffffffff81111561322b5761322a612c09565b5b6132378a828b01613122565b91505092959891949750929550565b600060208201905061325b6000830184612f66565b92915050565b61326a81612c93565b811461327557600080fd5b50565b60008135905061328781613261565b92915050565b600080604083850312156132a4576132a3612c04565b5b60006132b285828601612e51565b92505060206132c385828601613278565b9150509250929050565b600067ffffffffffffffff8211156132e8576132e7613025565b5b6132f182612d0f565b9050602081019050919050565b600061331161330c846132cd565b613085565b90508281526020810184848401111561332d5761332c613020565b5b6133388482856130d1565b509392505050565b600082601f8301126133555761335461301b565b5b81356133658482602086016132fe565b91505092915050565b6000806000806080858703121561338857613387612c04565b5b600061339687828801612e51565b94505060206133a787828801612e51565b93505060406133b887828801612d9c565b925050606085013567ffffffffffffffff8111156133d9576133d8612c09565b5b6133e587828801613340565b91505092959194509250565b6000806040838503121561340857613407612c04565b5b600061341685828601612e51565b925050602061342785828601612e51565b9150509250929050565b7f4e487b7100000000000000000000000000000000000000000000000000000000600052602260045260246000fd5b6000600282049050600182168061347857607f821691505b60208210810361348b5761348a613431565b5b50919050565b7f46656520746f6f20686967680000000000000000000000000000000000000000600082015250565b60006134c7600c83612cd4565b91506134d282613491565b602082019050919050565b600060208201905081810360008301526134f6816134ba565b9050919050565b60006060820190506135126000830186612e10565b61351f6020830185612f66565b61352c6040830184612e10565b949350505050565b7f4265617420646f6573206e6f7420657869737400000000000000000000000000600082015250565b600061356a601383612cd4565b915061357582613534565b602082019050919050565b600060208201905081810360008301526135998161355d565b9050919050565b7f4e487b7100000000000000000000000000000000000000000000000000000000600052601160045260246000fd5b60006135da82612d7b565b91506135e583612d7b565b92508282026135f381612d7b565b9150828204841483151761360a576136096135a0565b5b5092915050565b7f4e487b7100000000000000000000000000000000000000000000000000000000600052601260045260246000fd5b600061364b82612d7b565b915061365683612d7b565b92508261366657613665613611565b5b828204905092915050565b7f4e6f7420746865206f776e657200000000000000000000000000000000000000600082015250565b60006136a7600d83612cd4565b91506136b282613671565b602082019050919050565b600060208201905081810360008301526136d68161369a565b9050919050565b7f526f79616c747920746f6f206869676800000000000000000000000000000000600082015250565b6000613713601083612cd4565b915061371e826136dd565b602082019050919050565b6000602082019050818103600083015261374281613706565b9050919050565b600061375482612d7b565b91507fffffffffffffffffffffffffffffffffffffffffffffffffffffffffffffffff8203613786576137856135a0565b5b600182019050919050565b60008190508160005260206000209050919050565b60006020601f8301049050919050565b600082821b905092915050565b6000600883026137f37fffffffffffffffffffffffffffffffffffffffffffffffffffffffffffffffff826137b6565b6137fd86836137b6565b95508019841693508086168417925050509392505050565b6000819050919050565b600061383a61383561383084612d7b565b613815565b612d7b565b9050919050565b6000819050919050565b6138548361381f565b61386861386082613841565b8484546137c3565b825550505050565b600090565b61387d613870565b61388881848461384b565b505050565b5b818110156138ac576138a1600082613875565b60018101905061388e565b5050565b601f8211156138f1576138c281613791565b6138cb846137a6565b810160208510156138da578190505b6138ee6138e6856137a6565b83018261388d565b50505b505050565b600082821c905092915050565b6000613914600019846008026138f6565b1980831691505092915050565b600061392d8383613903565b9150826002028217905092915050565b61394682612cc9565b67ffffffffffffffff81111561395f5761395e613025565b5b6139698254613460565b6139748282856138b0565b600060209050601f8311600181146139a75760008415613995578287015190505b61399f8582613921565b865550613a07565b601f1984166139b586613791565b60005b828110156139dd578489015182556001820191506020850194506020810190506139b8565b868310156139fa57848901516139f6601f891682613903565b8355505b6001600288020188555050505b505050505050565b7f42656174206e6f7420666f722073616c65000000000000000000000000000000600082015250565b6000613a45601183612cd4565b9150613a5082613a0f565b602082019050919050565b60006020820190508181036000830152613a7481613a38565b9050919050565b7f496e73756666696369656e74207061796d656e74000000000000000000000000600082015250565b6000613ab1601483612cd4565b9150613abc82613a7b565b602082019050919050565b60006020820190508181036000830152613ae081613aa4565b9050919050565b6000613af282612d7b565b9150613afd83612d7b565b9250828203905081811115613b1557613b146135a0565b5b92915050565b600081519050919050565b600082825260208201905092915050565b6000613b4282613b1b565b613b4c8185613b26565b9350613b5c818560208601612ce5565b613b6581612d0f565b840191505092915050565b6000608082019050613b856000830187612e10565b613b926020830186612e10565b613b9f6040830185612f66565b8181036060830152613bb18184613b37565b905095945050505050565b600081519050613bcb81612c3a565b92915050565b600060208284031215613be757613be6612c04565b5b6000613bf584828501613bbc565b91505092915050565b600081905092915050565b6000613c1482612cc9565b613c1e8185613bfe565b9350613c2e818560208601612ce5565b80840191505092915050565b6000613c468285613c09565b9150613c528284613c09565b9150819050939250505056fea2646970667358221220bae01d759ffecd512c15e719ec33b92103cf7f12948e172280780b5f3cffcf3764736f6c63430008180033",
  "linkReferences": {},
  "deployedLinkReferences": {}
}